:100000000C94D1250C9402260C9402260C94022602
:100010000C9402260C9402260C9402260C940226C0
:100020000C9402260C9402260C9402260C940226B0
:100030000C9402260C9402260C9402260C940226A0
:100040000C9402260C94874D0C9402260C940226E4
:100050000C9402260C9402260C94E4A80C94E5CF90
:100060000C9402260C9481460C9402260C940226D1
:100070000C9402260C9402260C9402260C94022660
:100080000C9402260C9402260C9402260C94022650
:100090000C9402260C9402260C9402260C94022640
:1000A0000C9402260C9402260C9402260C94022630
:1000B0000C9402260C9402260C9402260C94022620
:1000C0000C9402260C9402260C9402260C94022610
:1000D0000C9402260C9402260C9402260C94022600
:1000E0000C94022684AFE5AD1BAEC0AF1BAE1BAEB9
:1000F0001BAE1BAE1BAE1BAE1BAE1BAE1BAE1BAEB8
:100100001BAE1BAE1BAE1BAE1BAE1BAE1BAE1BAEA7
:100110001BAE1BAE1BAE1BAE1BAE1BAE1BAE1BAE97
:10012000BAAF1BAE1BAE1BAE1BAE1BAE1BAE1BAEE7
:100130001BAE93AF1BAE1BAE1BAE1BAE1BAE1BAEFE
:100140001BAE1BAE1BAE1BAED7AF18AE62CE65CEDC
:1001500054CE58CE5ECE9CCE69CE6DCE73CE77CEC9
:100160007BCE81CE85CE89CE9CCE8FCE93CE97CEC0
:1001700001CF06CF0BCF15CF1FCF98CF29CF31CFCF
:1001800039CF43CF4DCF57CF66CF70CF98CF7ACFEF
:1001900084CF8ECF084AD73B3BCE016E84BCBFFDD7
:1001A000C12F3D6C74319ABD56833DDA3D00C77F47
:1001B00011BED9E4BB4C3E916BAAAABE00000080E0
:1001C0003F05A84CCDB2D44EB93836A9020C50B96F
:1001D000918688083CA6AAAA2ABE000000803F009B
:1001E0004E414E494E495459494E46CDCCCC3D0A1C
:1001F000D7233C17B7D13877CC2B329595E6241FFF
:10020000B14F0A000020410000C84200401C4620B7
:10021000BCBE4CCA1B0E5AAEC59D7400407A10F38A
:100220005A00A0724E18090010A5D4E80000E87624
:1002300048170000E40B54020000CA9A3B0000007B
:10024000E1F505000080969800000040420F000094
:1002500000A08601000000102700000000E8030055
:100260000000006400000000000A0000000000011F
:1002700000000000002C76D888DC674F0823DFC11F
:10028000DFAE59E1B1B796E5E3E453C63AE65199DA
:100290007696E8E6C28426EB898C9B62ED407C6F03
:1002A000FCEFBC9C9F40F2BAA56FA5F490055A2ABA
:1002B000F75C936B6CF9676DC11BFCE0E40D47FEC6
:1002C000F520E6B500D0ED902E03009435770500BB
:1002D00080841E080000204E0A000000C80C333342
:1002E00033330F986E12831141EF8D2114893BE651
:1002F0005516CFFEE6DB18D1844B381BF77C1D90DA
:100300001DA4BBE424203284725E228100C9F12442
:10031000ECA1E53D27434F4D4D554E4943415449CE
:100320004F4E0044525952554E004552524F52536F
:1003300000494E464F004543484F0047322F473350
:100340002062616420706172616D65746572730A08
:1003500000536C6565702E2E2E0043522D313020D7
:1003600053352072656164792E00526573756D692D
:100370006E67207072696E7400436C69636B2074E1
:100380006F20726573756D652E2E2E004E6F206D79
:100390006F76652E00456E642066696C65206C6919
:1003A00073740A00426567696E2066696C65206C2B
:1003B0006973740A005446207072696E74696E67BE
:1003C000206279746520004E6F742054462070724C
:1003D000696E74696E670A0046696C652064656CB5
:1003E000657465643A0044656C6574696F6E206677
:1003F00061696C65642C2046696C653A20006F70F9
:10040000656E206661696C65642C2046696C653A8E
:1004100020002569730025696D2025697300256911
:10042000682025696D202569730025696420256988
:10043000682025696D202569730025697920256963
:1004400064202569682025696D2025697300507234
:10045000696E742074696D653A200050726F74651E
:10046000637465642050696E0A004578747275641F
:1004700065722025730043522D3130205335207290
:10048000656164792E00360331032A0323031503C3
:100490006F66660044454255473A004B494C4C450F
:1004A000442E20004D3131332053006F6B004352F6
:1004B0002D3130205335204F66662E004361703A4F
:1004C000454D455247454E43595F50415253455261
:1004D0003A300A004361703A434153455F4C494703
:1004E00048545F4252494748544E4553533A300AA4
:1004F000004361703A544F47474C455F4C49474869
:1005000054533A300A004361703A534F46545741AE
:1005100052455F504F5745523A300A004361703A96
:100520004C4556454C494E475F444154413A300A88
:10053000004361703A5A5F50524F42453A300A00C8
:100540004361703A4155544F4C4556454C3A300A38
:10055000004361703A5052494E545F4A4F423A311B
:100560000A004361703A50524F47524553533A3054
:100570000A004361703A4155544F5245504F52540E
:100580005F54454D503A310A004361703A45455039
:10059000524F4D3A310A004649524D574152455F3C
:1005A0004E414D453A4D61726C696E2043726561F2
:1005B0006C69747920334420534F555243455F434F
:1005C0004F44455F55524C3A68747470733A2F2FFC
:1005D0006769746875622E636F6D2F4D61726C6907
:1005E0006E4669726D776172652F4D61726C696ECE
:1005F0002050524F544F434F4C5F56455253494F32
:100600004E3A312E30204D414348494E455F5459B2
:1006100050453A43522D31302053352045585452DD
:10062000554445525F434F554E543A312055554934
:10063000443A63656465326132662D343161322D2E
:10064000343734382D396231322D633535633632E3
:100650006633363766660A002F2F20007A5F6D6991
:100660006E3A2000795F6D696E3A2000785F6D699F
:100670006E3A20005265706F7274696E6720656E05
:100680006473746F70207374617475730A004D31F4
:10069000343520533C696E6465783E206F75742054
:1006A0006F662072616E67652028302D31290A003F
:1006B00053657474696E672054726176656C20416D
:1006C0006363656C65726174696F6E3A200053658F
:1006D0007474696E6720526574726163742041633B
:1006E00063656C65726174696F6E3A20005365745E
:1006F00074696E67205072696E7420416363656C23
:1007000065726174696F6E3A200053657474696E26
:1007100067205072696E7420616E64205472617635
:10072000656C20416363656C65726174696F6E3AD4
:100730002000205A00205900580020204D61783AAE
:100740002000205A00205900580020204D696E3AA0
:1007500020004F6E20004F666600536F6674206560
:100760006E6473746F70733A20000001363726038D
:10077000FF3C3D380EFF2E303E12FFFF0C0809FFF4
:10078000FFFF1A1C18FFFF08440AFF43FFFFFFFF8B
:10079000FFFF20643A0020693A0020703A004329A4
:1007A0000A0061626C656420286D696E2074656D55
:1007B000702000436F6C6420657874727564657393
:1007C0002061726520004F666673657473206170E6
:1007D000706C696564004572723A20546F6F2066D0
:1007E00061722100546F6F206661722066726F6DB6
:1007F000207265666572656E636520706F696E74E0
:100800000A004E6F2063617365206C696768740A23
:100810000041637469766520457874727564657209
:100820003A2000556E6B6E6F776E20636F6D6D6151
:100830006E643A2022004B494C4C45442E20005314
:10084000544F505045442E20005072696E746572AA
:100850002073746F707065642064756520746F20F8
:100860006572726F72732E204669782074686520F5
:100870006572726F7220616E6420757365204D39E8
:10088000393920746F20726573746172742E202858
:1008900054656D706572617475726520697320723C
:1008A000657365742E2053657420697420616674C5
:1008B00065722072657374617274696E67290A00CB
:1008C0004E6F204C696E65204E756D6265722077A3
:1008D00069746820636865636B73756D2C204C6167
:1008E0007374204C696E653A20004E6F2043686532
:1008F000636B73756D2077697468206C696E652011
:100900006E756D6265722C204C617374204C696E3B
:10091000653A2000636865636B73756D206D69735C
:100920006D617463682C204C617374204C696E6532
:100930003A20004C696E65204E756D6265722069C3
:1009400073206E6F74204C617374204C696E652047
:100950004E756D6265722B312C204C617374204C86
:10096000696E653A20004D313130004D3331004D14
:10097000383420582059205A2045005446207265AA
:100980006164206572726F720A00446F6E65207038
:1009900072696E74696E672066696C650A00204929
:1009A0006E76616C69642065787472756465722016
:1009B000000000000000000000000000000000FF38
:1009C000430000FF430000FF434D36303020486FA6
:1009D00074656E6420746F6F20636F6C6420746F35
:1009E000206368616E67652066696C616D656E7411
:1009F0000A0024F4D43050C38E20C2A24017828B48
:100A00007011127A910D816CD90AA861E108C7585A
:100A10006607615143061E4B5D05C145A7041A4197
:100A20001104093D9803713931034036DB02653307
:100A30009102D4305402802E1D02632CEE01752ADF
:100A4000C501B028A001102781018F2564012B2446
:100A50004B01E0223401AC211F018D200D01801FCC
:100A6000FC00841EED00971DDF00B81CD200E61BC1
:100A7000C600201BBC00641AB200B219A8000A19F3
:100A8000A0006A189900D117910040178B00B51685
:100A9000840031167E00B31579003A157300C7142F
:100AA0006F0058146A00EE13660088136300251364
:100AB0005E00C7125B006C12570015125400C11182
:100AC000510070114F0021114B00D61049008D10BC
:100AD00047004610440002104200C00F4000800F43
:100AE0003E00420F3C00060F3B00CB0E3800930E39
:100AF00037005C0E3500270E3400F30D3200C10DB7
:100B00003100900D3000600D2E00320D2D00050DCE
:100B10002C00D90C2B00AE0C2900850C29005C0C94
:100B20002700350C27000E0C2600E80B2400C40B10
:100B30002400A00B23007D0B23005A0B2100390B4E
:100B40002100180B2000F80A1F00D90A1E00BB0A5A
:100B50001E009D0A1D00800A1D00630A1C00470A32
:100B60001B002C0A1B00110A1A00F7091A00DD09E4
:100B70001900C4091900AB091900920917007B0973
:100B80001800630917004C091600360916002009E1
:100B900016000A091500F5081500E0081400CC0835
:100BA0001400B8081400A4081400900813007D086D
:100BB00012006B081300580812004608120034088F
:100BC0001100230811001208110001081100F0079C
:100BD0001000E0071000D0071000C0071000B00799
:100BE0000F00A107100091070E0083070F00740784
:100BF0000F0065070E0057070E0049070E003B0760
:100C00000D002E070E0020070D0013070D0006072C
:100C10000D00F9060C00ED060D00E0060C00D406F0
:100C20000C00C8060C00BC060C00B0060C00A406A4
:100C30000B0099060C008D060B0082060B00770650
:100C40000B006C060B0061060A0057060B004C06F1
:100C50000A0042060A0038060A002E060A00240688
:100C60000A001A060A001006090007060A00FD0518
:100C70000900F4050900EB050900E2050900D905A2
:100C80000900D0050900C7050900BE050900B50522
:100C90000800AD050800A50509009C05080094059D
:100CA00008008C050800840508007C050800740510
:100CB00008006C050700650508005D05070056057E
:100CC00008004E05070047050700400508003805E5
:100CD0000700310507002A050700230507001C054A
:100CE0000600160507000F050700080506000205A7
:100CF0000700FB040600F5040700EE040600E80404
:100D00000600E2040700DB040600D5040600CF0459
:100D10000600C9040600C3040600BD040600B704AB
:100D20000600B1040500AC040600A6040600A004F9
:100D300005009B04060095040500900406008A0443
:100D4000050085040500800406007A04050075048A
:100D50000500700405006B040500660405006104CD
:100D600005005C04050057040500520405004D040D
:100D7000050048040500430405003E0404003A044D
:100D8000050035040500300404002C040500270488
:100D90000400230405001E0404001A0404001604C1
:100DA0000500110404000D040400090405000404F6
:100DB000040000040400FC030400F8030400F4032E
:100DC0000400F0030400EC030400E8030400E4035F
:100DD0000400E0030400DC030400D8030400D4038F
:100DE0000400D0030400CC030400C8030300C503BF
:100DF000030024F404D9201BC40C5C0E9804C4091D
:100E00005F0265077101F405F900FB04B3004804B3
:100E10008700C10369005803550003034500BE0263
:100E20003A008402310053022A00290225000402FC
:100E30002000E4011C00C8011900AF01170098014F
:100E400014008401130071011000610110005101B0
:100E50000E0043010D0036010B002B010B00200199
:100E60000B00150109000C01090003010800FB003B
:100E70000800F3000800EB000700E4000600DE00B5
:100E80000600D8000600D2000600CC000500C7000E
:100E90000500C2000500BD000400B9000400B50053
:100EA0000400B1000400AD000400A9000400A50086
:100EB0000300A20003009F0004009B0003009800B1
:100EC00003009500020093000300900003008D00D2
:100ED00002008B00030088000200860002008400EC
:100EE0000300810002007F0002007D0002007B0001
:100EF0000200790002007700010076000200740011
:100F0000020072000100710002006F0002006D001B
:100F100001006C0002006A00010069000200670025
:100F2000010066000100650001006400020062002B
:100F3000010061000100600001005F0002005D002F
:100F400001005C0001005B0001005A000100590033
:100F50000100580001005700010056000100550033
:100F60000100540001005300000053000100520032
:100F7000010051000100500001004F0001004E002F
:100F800000004E0001004D0001004C0001004B002C
:100F900000004B0001004A00010049000100480028
:100FA0000000480001004700010046000000460024
:100FB000010045000000450001004400010043001D
:100FC0000000430001004200000042000100410017
:100FD000000041000100400001003F0000003F0010
:100FE00001003E0000003E0001003D0000003D0009
:100FF00001003C0000003C0000003C0001003B0000
:1010000000003B0001003A0000003A0001003900F6
:1010100000003900010038000000380000003800EE
:1010200001003700000037000100360000003600E4
:1010300000003600010035000000350000003500DA
:1010400001003400000034000000340001003300CF
:1010500000003300000033000100320000003200C5
:1010600000003200010031000000310000003100BA
:1010700001003000000030000000300001002F00AF
:1010800000002F0000002F0000002F0001002E00A4
:1010900000002E0000002E0001002D0000002D0099
:1010A00000002D0000002D0001002C0000002C008D
:1010B00000002C0000002C0001002B0000002B0081
:1010C00000002B0000002B0001002A0000002A0075
:1010D00000002A0000002A00010029000000290069
:1010E000000029000000290000002900010028005C
:1010F0000000280000002800000028000000280050
:101100000100270000002700000027000000270042
:101110000000270001002600000026000000260035
:101120000000260000002600010025000000250028
:10113000000025000000250000002500000025001B
:10114000010024000000240000002400000024000E
:101150000000240001002300000023000000230001
:1011600000002300000023000000230000002300F3
:1011700001002200000022000000220000002200E6
:1011800000002200000022000100210000002100D8
:1011900000002100000021000000210000002100CB
:1011A00000002100010020000000200000002000BD
:1011B00000002000000020000000200000002000AF
:1011C0000000200001001F0000001F0000001F00A1
:1011D00000001F0000001F0000001F0000001F0093
:1011E00001001E0000001E0000001E0000001E0086
:1011F00000004D383420582059205A20450062659F
:10120000640A002C2073797374656D2073746F7099
:1012100070656421204865617465725F49443A20B5
:101220000048656174696E67206661696C65640079
:1012300048656174696E67206661696C6564004821
:10124000656174696E67206661696C6564004865F4
:101250006174696E67206661696C65640020746FF3
:101260006F206C6F6E6720657874727573696F6E2E
:101270002070726576656E7465640A0020636F6C19
:101280006420657874727573696F6E20707265760C
:10129000656E7465640A0000000000000000000034
:1012A000000000000000000000000000000000003E
:1012B000000000000000000000000000000000002E
:1012C000000000000000000000000000000000001E
:1012D000000000000000000000000000000000000E
:1012E00000000000000000000000000000000000FE
:1012F00000000000000000000000000000000000EE
:1013000000000000000000000000000000000000DD
:1013100000000000000000000000000000000000CD
:1013200000000000000000000000000000000000BD
:1013300000000000000000000000000000000000AD
:10134000000000000000000000000000000000009D
:10135000000000000000000000000000000000008D
:10136000000000000000000000000000000000007D
:10137000000000000000000000000000000000006D
:10138000000000000000000000000000000000005D
:10139000000000000000000000000000000000004D
:1013A000000000000000000000000000000000003D
:1013B000000000000000000000000000000000002D
:1013C000000000000000000000000000000000001D
:1013D000000000000000000000000000000000000D
:1013E00000000000000000000000000000000000FD
:1013F00000000000000000000000000000000000ED
:10140000000000000000000000000000000C0000D0
:10141000000000007C000001FC000000007C038054
:1014200000000000C63F80031C000000000C038089
:1014300030000000C318C0060C000000000C0000C3
:1014400030000000C31860060C000000000C000013
:10145000300000000318300C00F787C1F80C07803B
:10146000FE3DE0000618300C003D8C630C0C018042
:101470003018C0001E18300C003818330C0C0180D6
:10148000300D80000318300C003018303C0C018007
:10149000300D80000198300C00301FF1EC0C018001
:1014A000300D80000198300C0C3018030C0C0180BA
:1014B00030078000C19830060C3018330C0C0180C6
:1014C00030070000C198600718300C631F0C0180C2
:1014D00033030000C318C001F0FC07C1FF7F87E0A1
:1014E0001E0300007E3F800000000000000000009E
:1014F00000060000000000000000000000000000E6
:10150000001E0000000000000000000000000000BD
:10151000001C0000000000000000000000000000AF
:1015200000000000000000000000000000000000BB
:1015300000000000000000000000000000000000AB
:10154000000000000000000000000000000000009B
:10155000000000000000000000000000000000008B
:10156000000000000000000000000000000000007B
:10157000000000000000000000000000000000006B
:10158000000000000000000000000000000000005B
:10159000000000000000000000000000000000004B
:1015A000000000000000000000000000000000003B
:1015B000000000000000000000000000000000002B
:1015C000000000000000000000000000000000001B
:1015D000000000000000000000000000000000000B
:1015E00000000000000000000000000000000000FB
:1015F00000000000000000000000000000000000EB
:1016000000000000000000000000000000000000DA
:1016100000000000000000000000000000000000CA
:1016200000000000000000000000000000000000BA
:1016300000000000000000000000000000000000AA
:10164000000000000000000000000000000000009A
:10165000000000000000000000000000000000008A
:10166000000000000000000000000000000000007A
:10167000000000000000000000000000000000006A
:10168000000000000000000000000000000000005A
:101690000000000000000025753A25303275002555
:1016A0003032753A25303275002575642025303288
:1016B000753A25303275005A00590058000920004B
:1016C0000F7C0020E000000000000000003FFFF061
:1016D00011220061100000000000000000380070BE
:1016E0002022002110000000000000000030FC302B
:1016F000203C002110000000000000000020FC1031
:101700002028FC21100000000000000000207810BC
:1017100020240021100000000000000000203010F4
:10172000202400211000000000000000002C00D048
:1017300011220021101FE00000104100002E31D0C6
:101740000E730070E03FF00000082080002F7BD077
:1017500000000000003FF00000082080002F7BD038
:1017600000079F00003FF00000104100002E31D024
:1017700000089000001FE00000208200002C00D034
:1017800000081000001FE00000410400002030109D
:1017900000041E00003FF00000410400002078100B
:1017A00000031100003FF000002082000020FC1028
:1017B00000008100003FF000001041000030FC30CC
:1017C00000009100000FC000000000000038007011
:1017D000000891000007800000FFFFC0003FFFF0FD
:1017E000000F0E000003000000FFFFC0000000001B
:1017F0000F7C0020E000000000000000003FFFF030
:10180000112200611000000000000000003800708C
:10181000202200211000000000000000003387306B
:10182000203C0021100000000000000000278790ED
:101830002028FC211000000000000000002F87D0AD
:10184000202400211000000000000000002F87D09D
:10185000202400211000000000000000002F03D011
:1018600011220021101FE00000082080002030100D
:101870000E730070E03FF00000041040002078106C
:1018800000000000003FF00000041040002078102D
:1018900000079F00003FF00000082080002030106B
:1018A00000089000001FE00000104100002F03D04E
:1018B00000081000001FE00000208200002F87D0E9
:1018C00000041E00003FF00000208200002F87D09F
:1018D00000031100003FF000001041000027879036
:1018E00000008100003FF0000008208000338730B6
:1018F00000009100000FC0000000000000380070E0
:10190000000891000007800000FFFFC0003FFFF0CB
:10191000000F0E000003000000FFFFC000000000E9
:101920005873746570732F6D6D00587374657073A0
:101930002F6D6D005873746570732F6D6D00597342
:10194000746570732F6D6D005973746570732F6DAE
:101950006D005973746570732F6D6D005A737465E3
:1019600070732F6D6D005A73746570732F6D6D00F9
:101970005A73746570732F6D6D0045737465707361
:101980002F6D6D004573746570732F6D6D00457319
:10199000746570732F6D6D0056656C6F6369747933
:1019A0000056656C6F636974790056656C6F636986
:1019B000747900416363656C65726174696F6E0070
:1019C000416363656C65726174696F6E0041636346
:1019D000656C65726174696F6E004A65726B004A6E
:1019E00065726B004A65726B0053746570732F6D7E
:1019F0006D0053746570732F6D6D00537465707353
:101A00002F6D6D004520696E206D6D330045206996
:101A10006E206D6D33004520696E206D6D3300467C
:101A2000696C2E204469612E0046696C2E20446941
:101A3000612E0046696C2E204469612E004F666657
:101A4000004F6E200043616E6E6F7420656E74658A
:101A500072207375626469723A2000022E2E004172
:101A6000626F7574205072696E7465720041626FA6
:101A70007574205072696E7465720041626F75747E
:101A8000205072696E746572007777772E63726585
:101A9000616C69747933642E636E007777772E6397
:101AA00078737733642E636F6D007777772E637268
:101AB00065616C69747933642E636E004578747265
:101AC000756465727320310045787472756465724F
:101AD000732031004578747275646572732031002B
:101AE000426175643A2031313532303000426175DF
:101AF000643A2031313532303000426175643A2029
:101B000031313532303000437265616C697479204F
:101B100056322E310043522D313020533500312EB4
:101B2000312E3600437265616C697479203344004C
:101B3000566D6178205800566D6178205800566DBA
:101B40006178205800566D6178205900566D617893
:101B5000205900566D6178205900566D6178205AE1
:101B600000566D6178205A00566D6178205A0056F3
:101B70006D6178204500566D6178204500566D6195
:101B800078204500566D696E00566D696E00566D81
:101B9000696E005654726176206D696E00565472FB
:101BA0006176206D696E005654726176206D696EA3
:101BB00000416363656C00416363656C004163636E
:101BC000656C00412D7265747261637400412D7201
:101BD00065747261637400412D726574726163741F
:101BE00000412D74726176656C00412D74726176CE
:101BF000656C00412D74726176656C00416D617891
:101C0000205800416D6178205800416D617820585E
:101C100000416D6178205900416D61782059004183
:101C20006D6178205900416D6178205A00416D61E5
:101C300078205A00416D6178205A00416D6178200A
:101C40004500416D6178204500416D617820450077
:101C500056782D6A65726B0056782D6A65726B0036
:101C600056782D6A65726B0056792D6A65726B0025
:101C700056792D6A65726B0056792D6A65726B0014
:101C8000567A2D6A65726B00567A2D6A65726B0002
:101C9000567A2D6A65726B0056652D6A65726B0007
:101CA00056652D6A65726B0056652D6A65726B000C
:101CB00057726974696E6720746F2066696C653A43
:101CC00020006F70656E206661696C65642C20462B
:101CD000696C653A20006F70656E206661696C659D
:101CE000642C2046696C653A200046696C65207357
:101CF000656C65637465640A002053697A653A20EF
:101D00000046696C65206F70656E65643A20006FEF
:101D100070656E206661696C65642C2046696C652F
:101D20003A20002066696C653A20004E6F772000EB
:101D30002220706F73002220706172656E743A22E7
:101D400000535542524F5554494E452043414C4C47
:101D5000207461726765743A22004B494C4C4544CB
:101D60002E2000747279696E6720746F2063616C35
:101D70006C207375622D67636F64652066696C659E
:101D800073207769746820746F6F206D616E79209D
:101D90006C6576656C732E204D4158206C657665B8
:101DA0006C2069733A0043616E6E6F74206F7065CA
:101DB0006E207375626469722000544620636172FC
:101DC00064206F6B0A006F70656E526F6F742066CF
:101DD00061696C65640A00766F6C756D652E696E5D
:101DE0006974206661696C65640A004572726F727D
:101DF0003A00544620696E6974206661696C0A0075
:101E00006175746F25692E67004D3234004D323391
:101E100020257300202F002042403A0020403A0045
:101E200048656174696E6720646F6E652E00205787
:101E30003A004578747275646572202573004352C8
:101E40002D31302053352072656164792E00426552
:101E50006420646F6E652E0020573A00426564204E
:101E600048656174696E672E00205A3A0020593A1D
:101E70000020436F756E7420583A0020453A0020C8
:101E80005A3A0020593A00583A0023646566696E50
:101E900065202044454641554C545F4B6420002347
:101EA000646566696E65202044454641554C545F23
:101EB0004B69200023646566696E652020444546B1
:101EC00041554C545F4B702000504944204175747B
:101ED0006F74756E652066696E697368656421202C
:101EE00050757420746865206C617374204B702C7D
:101EF000204B6920616E64204B6420636F6E7374A5
:101F0000616E74732066726F6D2062656C6F7720EE
:101F1000696E746F20436F6E66696775726174696C
:101F20006F6E2E680A00504944204175746F7475B5
:101F30006E65206661696C6564212074696D656FEA
:101F400075740A00504944204175746F74756E654C
:101F5000206661696C6564212054656D70657261ED
:101F60007475726520746F6F20686967680A002055
:101F70004B643A2000204B693A2000204B703A20F5
:101F8000000A20436C617373696320504944200A3E
:101F9000002054753A2000204B753A2000206D61D6
:101FA000783A2000206D696E3A200020643A2000C3
:101FB00020626961733A2000000022002500280099
:101FC0002B002E0031003400020100000501080141
:101FD0000B01000020002300260029002C002F0008
:101FE0003200000100000301060109010505050595
:101FF000070508080808020202020A0A0808040481
:1020000004040101010101010101030303030303AE
:102010000303040707070C0C0C0C0C0C0C0C02023D
:10202000020206060606060606060B0B0B0B0B0B3A
:102030000B0B0102102020080810204010204080C7
:10204000020102010804020101020408102040807C
:10205000804020100804020180040201804020100A
:102060000804020108040201010204081020408053
:10207000010204081020408000000A0B02090C0D28
:102080000E0807030401000000000000000000002B
:102090000000000000000000000000000000000040
:1020A00000000000121110000000000000000000FD
:1020B00000000000000000000000000000002020E0
:1020C000506C616E6E6572427566666572427974B7
:1020D00065733A20002046726565204D656D6F720C
:1020E000793A2000436F6D70696C65643A204175E0
:1020F0006720203320323031390A00207C2041759E
:1021000074686F723A2043522D31302053350A00E3
:10211000323031392D30372D323600204C61737416
:1021200020557064617465643A2000312E312E367A
:102130000A004D61726C696E0020536F667477619E
:1021400072652052657365740A0020576174636874
:10215000646F672052657365740A002042726F775E
:102160006E206F75742052657365740A002045787F
:102170007465726E616C2052657365740A00506FED
:1021800077657255700A0073746172740A00657223
:10219000726F722077726974696E6720746F20663F
:1021A000696C650A00456E6473746F7073202563F3
:1021B00020256320256320256300205A3A002059FA
:1021C0003A0020583A00656E6473746F707320682B
:1021D00069743A2000446F6E6520736176696E679A
:1021E0002066696C652E0A004D32390048617264C0
:1021F000636F6465642044656661756C7420536523
:102200007474696E6773204C6F616465640A002C96
:102210000100002C01000064000000E80300000041
:10222000009643000096430000A0400000C8410013
:1022300000A0420000A0420000C8430000BA4220B3
:10224000440020490020204D3330312050005049B7
:10225000442073657474696E67733A0A00204600FF
:1022600020420020480020204D3134352053004DBD
:102270006174657269616C20686561747570207045
:102280006172616D65746572733A0A00205A0020AC
:10229000590020204D323036205800486F6D65209F
:1022A0006F66667365743A0A00204500205A002064
:1022B000590020580020420020540020204D323088
:1022C00035205300416476616E6365643A20533C67
:1022D0006D696E5F66656564726174653E20543C2D
:1022E0006D696E5F74726176656C5F666565647258
:1022F0006174653E20423C6D696E5F7365676D6514
:102300006E745F74696D655F6D733E20583C6D61DE
:10231000785F78795F6A65726B3E205A3C6D6178B0
:102320005F7A5F6A65726B3E20453C6D61785F65E0
:102330005F6A65726B3E0A00205400205200202024
:102340004D323034205000416363656C65726174B6
:10235000696F6E2028756E6974732F7332293A2065
:10236000503C7072696E745F616363656C3E2052AD
:102370003C726574726163745F616363656C3E2077
:10238000543C74726176656C5F616363656C3E0A90
:1023900000204500205A0020590020204D323031C5
:1023A0002058004D6178696D756D20416363656CDF
:1023B00065726174696F6E2028756E6974732F730E
:1023C00032293A0A00204500205A002059002020D6
:1023D0004D3230332058004D6178696D756D20663F
:1023E00065656472617465732028756E6974732FF6
:1023F00073293A0A00204500205A00205900202065
:102400004D39322058005374657073207065722006
:10241000756E69743A0A0020204D32303020443005
:102420000A0020204D32303020440020446973617E
:10243000626C65640A0046696C616D656E74207338
:10244000657474696E67733A0020204D3134392009
:1024500043203B20556E69747320696E2043656C80
:10246000736975730A002020473231202020203BF9
:1024700020556E69747320696E206D6D0A0046697F
:102480006C616D656E7400E0E10046696C616D65BC
:102490006E74004C6F61642073657474696E677349
:1024A000004C6F6164206D656D6F7279004C6F61D7
:1024B000642073657474696E677300496E6974692A
:1024C000616C697A6520454550524F4D00496E69EF
:1024D0007469616C697A6520454550524F4D0049D9
:1024E0006E697469616C697A6520454550524F4D3B
:1024F00000456E676C69736800456E676C69736848
:1025000000456E676C697368004368696E65736542
:10251000004368696E657365004368696E6573653D
:10252000005072656865617420504C4120636F6E85
:1025300066005072656865617420504C4120BEBFD2
:10254000005072656865617420504C4120636F6E65
:102550006600507265686561742041425320636F64
:102560006E6600507265686561742041425320BEFA
:10257000BF00507265686561742041425320636FEB
:102580006E660054656D706572617475726500C920
:10259000D20054656D706572617475726500537414
:1025A0006F72652073657474696E67730053746F1E
:1025B0007265206D656D6F72790053746F7265205E
:1025C00073657474696E67730048656174696E67DA
:1025D000206661696C65640048656174696E672096
:1025E0006661696C65640048656174696E67206640
:1025F00061696C6564004D696E696D756D20546527
:102600006D702069732020313730004D696E696D1F
:10261000756D2054656D702069732020313730004E
:102620004D696E696D756D2054656D7020697320FC
:1026300020313730004261636B004261636B0042BE
:1026400061636B00524553554D45204F5054494FDF
:102650004E533A00524553554D45204F5054494F23
:102660004E533A00524553554D45204F5054494F13
:102670004E533A00526573756D65207072696E74C1
:1026800000526573756D65207072696E74005265D5
:1026900073756D65207072696E740045787472751B
:1026A0006465206D6F72650045787472756465208D
:1026B0006D6F72650045787472756465206D6F7218
:1026C0006500507265686561742041425320456E13
:1026D0006400507265686561742041425320456E04
:1026E0006400507265686561742041425320456EF4
:1026F00064005072656865617420414253204265F0
:102700006400507265686561742041425320C4C7FB
:1027100000507265686561742041425320426564CF
:1027200000473238004175746F20686F6D6500BBDB
:10273000BCBD004175746F20686F6D65004D34320B
:10274000380053657420686F6D65206F6666736529
:10275000747300BEBFBBBCBDC0C1005365742068AC
:102760006F6D65206F66667365747300446973618D
:10277000626C6520737465707065727300B5B6B76E
:10278000B8B9BA0044697361626C6520737465708E
:1027900070657273004368616E67652066696C617D
:1027A0006D656E74004368616E67652066696C6173
:1027B0006D656E74004368616E67652066696C6163
:1027C0006D656E7400436F6F6C646F776E00C8C97F
:1027D00000436F6F6C646F776E005072656865615F
:1027E0007420504C4100C3C420504C4100507265CD
:1027F0006865617420504C41005072656865617471
:102800002041425300C3C4204142530050726568C6
:1028100065617420414253004D3834004D6F766538
:10282000206178697300C1B2CE004D6F766520617A
:10283000786973004D6F76652031306D6D00C1B2DF
:102840002031306D6D004D6F76652031306D6D003B
:102850004D6F766520316D6D00C1B220316D6D0018
:102860004D6F766520316D6D004D6F766520302E91
:10287000316D6D00C1B220302E316D6D004D6F761F
:102880006520302E316D6D0070012C019001270103
:10289000B0012201C0011D01F00118011002130155
:1028A00030020E016002090190020401C002FF0023
:1028B0000003FA004003F5008003F000D003EB00B2
:1028C0002004E6007004E100E004DC004005D700CD
:1028D000C005D2004006CD00D006C8008007C30066
:1028E0003008BE00F008B900C009B400B00AAF005B
:1028F000B00BAA00D00CA500000EA000500F9B004A
:10290000C01096005012910000148C00C015870072
:10291000B0178200B0197D00D01B7800001E730034
:1029200040206E0090226900F024640040275F0080
:1029300090295A00E02B5500102E500020304B00FB
:1029400010324600E033410090353C00103737002C
:1029500070383200A0392D00B03A2800A03B230087
:10296000603C1E00103D1900903D1400103E0F0009
:10297000703E0A00C03E0500003F0000403FFBFFE4
:10298000803FF6FFC03FF1FF544845524D414C2077
:1029900052554E4157415900546865726D616C2023
:1029A00052756E61776179004572723A204D494ED9
:1029B00054454D5020424544004572723A204D49DD
:1029C0004E54454D50004D494E54454D5020747263
:1029D00069676765726564004572723A204D4158B7
:1029E00054454D5020424544004572723A204D41B5
:1029F0005854454D50004D415854454D5020747227
:102A000069676765726564004D61696E00AEAFB05D
:102A1000004D61696E004D6F7665205800C1B2208F
:102A200058004D6F76652058004D6F76652059002F
:102A3000C1B22059004D6F76652059004D6F766503
:102A4000205A00C1B2205A004D6F7665205A0045C9
:102A50007874727564657200CCADBA004578747292
:102A600075646572004E6F7A7A6C6500D3D4004E3F
:102A70006F7A7A6C650042656400C4C70042656481
:102A80000046616E20737065656400D5D6D1D200B2
:102A900046616E20737065656400436F6E74726F7B
:102AA0006C00D8D900436F6E74726F6C004D6F74F8
:102AB000696F6E00DFB2004D6F74696F6E00507207
:102AC000657061726500A4A50050726570617265E1
:102AD00000526573756D65207072696E7400F4F54F
:102AE000CAF300526573756D65207072696E74006B
:102AF00053746F70207072696E7400F2F6CAF3003E
:102B000053746F70207072696E74005052494E5445
:102B100020504155534544005052494E5420504195
:102B200055534544005052494E5420504155534549
:102B3000440020204E6F7A7A6C653A200020204EA7
:102B40006F7A7A6C653A200020204E6F7A7A6C6535
:102B50003A200000060900FE000000000001090004
:102B600008FE000005080806000040F0C8888898A4
:102B70007810050808060000C0F88888888888F85A
:102B80000505050600012030F8302005080806007C
:102B9000002070F820202020E00509090600FF2011
:102BA00070A8A8B8888870200509090600FFE08091
:102BB000C0B0A8283028280509090600FFF8A88811
:102BC00088888888A8F8050A0A0600FE2050505018
:102BD0005088A8A8887003030306000340A0405053
:102BE0006C65617365207265736574005052494E5F
:102BF0005445522048414C544544005072696E740B
:102C000065722068616C7465642E206B696C6C2839
:102C1000292063616C6C6564210A0062696E004D55
:102C200031313720494E56414C49442044415441AA
:102C30002E004D313137205072696E74696E672EE7
:102C40002E2E004730205A25730047323820583046
:102C5000205930004730205A257300473932205A16
:102C60002573204525730062696E00000000000096
:102C70000000000000000000004842000048420040
:102C8000008040000000005761726E696E673A2054
:102C9000486F6D696E672042756D70204469766972
:102CA000736F72203C20310A000202040000A04031
:102CB0000000A040000000400000FF430000FF4370
:102CC0000000FF43FFFFFF4361726420696E73657C
:102CD0007274656400A8A9AAAB004361726420699C
:102CE0006E73657274656400436172642072656D11
:102CF0006F76656400A8A9ACAD0043617264207270
:102D0000656D6F766564004D6F76696E672E2E2E49
:102D1000004572723A204368616E67652046696CAF
:102D2000616D656E74005072696E742070617573A8
:102D30006564004572723A204368616E676520469B
:102D4000696C616D656E7400290A00206279746592
:102D5000733B20637263200053657474696E6773FC
:102D60002053746F726564202800202863616C63AF
:102D7000756C6174656429210A0020213D2000459D
:102D80004550524F4D20435243206D69736D61741D
:102D90006368202D202873746F72656429200029D0
:102DA0000A002062797465733B20637263200020FF
:102DB00073746F7265642073657474696E677320D1
:102DC000726574726965766564202800204D6172B1
:102DD0006C696E3D563431290A0028454550524FE2
:102DE0004D3D00454550524F4D2076657273696FD9
:102DF0006E206D69736D6174636820007C3C3E5E7B
:102E00002B3D3F2F5B5D3B2C2A225C00000C0B000E
:102E1000FE070192032120FFFF0AFF07FF000000C9
:102E200006000A010707060200808080808000807B
:102E3000030202060105A0A0050707060000505086
:102E4000F850F850500507070600002078A07028B9
:102E5000F020050707060000C0C81020409818059C
:102E600007070600006090A040A8906802030306D0
:102E70000104C040800307070601002040808080D5
:102E800040200307070601008040202020408005E5
:102E9000050506000120A870A8200505050600010B
:102EA0002020F820200203030602FFC04080050115
:102EB00001060003F8020202060200C0C005050573
:102EC00006000108102040800507070600007088F2
:102ED00098A8C8887003070706010040C04040401A
:102EE00040E0050707060000708808708080F8053C
:102EF0000707060000F81020100808F0050707066D
:102F0000000010305090F81010050707060000F878
:102F100080F008088870050707060000708080F0C0
:102F2000888870050707060000F808102020202078
:102F300005070706000070888870888870050707F5
:102F400006000070888878080870020505060200EF
:102F5000C0C000C0C00206060602FFC0C000C040DC
:102F60008004070706000010204080402010050361
:102F700003060002F800F80407070600008040205E
:102F80001020408005070706000070880810200008
:102F90002005070706000070880868A8A8700507C4
:102FA00007060000708888F88888880507070600EB
:102FB00000F08888F08888F0050707060000708810
:102FC0008080808870050707060000F08888888860
:102FD00088F0050707060000F88080F08080F8057B
:102FE0000707060000F88080F0808080050707064C
:102FF0000000708880B88888700507070600008880
:103000008888F88888880107070602008080808009
:1030100080808005070706000038101010109060AF
:103020000507070600008890A0C0A0908805070744
:10303000060000808080808080F805070706000079
:1030400088D8A8888888880507070600008888C867
:10305000A8988888050707060000708888888888EF
:1030600070050707060000F08888F080808005075B
:103070000706000070888888A89068050707060082
:1030800000F08888F0A09088050707060000788087
:1030900080700808F0050707060000F820202020AF
:1030A0002020050707060000888888888888700522
:1030B00007070600008888888888502005070706CB
:1030C00000008888888888A85005070706000088BF
:1030D0008850205088880507070600008888885097
:1030E000202020050707060000F80810204080F87F
:1030F000030707060000E08080808080E00505056A
:103100000600018040201008030707060000E020A9
:1031100020202020E005030306000420508805013C
:1031200001060000F80202020602058040050505BE
:103130000600007008788878050707060000808080
:10314000B0C88888F005050506000070808088708A
:1031500005070706000008086898888878050505AF
:103160000600007088F880700507070600003048E8
:10317000E0404040400506060600FF708888780859
:10318000700507070600008080B0C888888801079E
:103190000706020080008080808080030808060106
:1031A000FF200020202020A0400407070601008007
:1031B0008090A0C0A090030707060100C0404040D7
:1031C0004040E0050505060000D0A8A8A8A8050510
:1031D00005060000B0C8888888050505060000704F
:1031E000888888700506060600FFF08888F08080D1
:1031F0000506060600FF7888887808080505050694
:103200000000B0C880808005050506000070807051
:1032100008F00407070600004040E0404040300549
:1032200005050600008888889868050505060000E1
:1032300088888850200505050600008888A8A850C1
:103240000505050600008850205088050606060082
:10325000FF888888780870050505060000F81020AA
:1032600040F803070706010020404080404020014D
:1032700007070602008080808080808003070706A1
:1032800001008040402040408005020206000368A3
:103290009000000006000A0000000C000A00000078
:1032A0000C000A0000000C000A0000000C000A00DC
:1032B00000000C000A0000000C000A0000000C00D6
:1032C0000A0000000C000A0000000C000A000000C8
:1032D0000C000A0000000C000A0000000C000A00AC
:1032E00000000C000A0000000C000A0000000C00A6
:1032F0000A0000000C000A0000000C000A00000098
:103300000C000A0000000C000A0000000C000A007B
:1033100000000C000A0000000C000A0000000C0075
:103320000A0000000C000A0000000C000A00000067
:103330000C000A0000000C000A0000000C000A004B
:1033400000000C000A0B0B160C00FFFFE00200024D
:103350000004000D0014802440C420040004000474
:10336000000B0B160C00FFF9008A00ABE0AC40AA82
:1033700040AA40AA40AA80210052808C600B0B1604
:103380000C00FF240024003F80440084000400FF60
:10339000E00A0011002080C0600B0B160C00FF2417
:1033A0000024003FC044000400FFE00900090011B0
:1033B00020212040E00B0B160C00FF20003DE051C7
:1033C0002091201120FF201120292025E045208078
:1033D000000B0B160C00FF20807FC00840FFE0119F
:1033E0000020805F4080203F8000007FC00B0B16D4
:1033F0000C00FF224047E09480E4802FE04480F4FA
:103400008007E03480C48007E00B0B160C00FF043B
:10341000808FE0490019002FC0090009002FC04922
:103420000089000FE00B0B160C00FF10003F8051CD
:10343000000E003180C0603F8024803F8024803FA8
:10344000800B0B160C00FF2280FA4007E0FA808AFE
:10345000808A80FA802280B280AAA064E00B0B16DA
:103460000C00FF222047409280EFE0220047C0EC92
:103470004007C03440C7C004400B0B160C00FF08C7
:10348000000FC008000800FFE008000E00098008D7
:1034900040080008000A0B160C00FFFF80008000A7
:1034A0008080808080FF8080008000804080407F1E
:1034B000C00B0B160C00FF47C04100EFE041004578
:1034C000006960C9204D6049204FE0C8200B0B16F1
:1034D0000C00FF0800040004000A000A000A0011A2
:1034E0000011002080404080200B0B160C00FF22B2
:1034F000402200F7E0220023E03520E52025402887
:1035000080294072200B0A140C00004440444044BF
:10351000407FC004000400842084208420FFE00B4E
:103520000B160C00FF040000007FC0040004000420
:10353000007FC0040004000400FFE00B0B160C0029
:10354000FFFFE0110001C0FE00488025000400FFDD
:10355000E015002480C4600B0B160C00FF11007FE7
:10356000C044407FC044407FC00400FFE00400042A
:10357000000400090B160C00FF1000FF8080808003
:1035800080FF8080808080FF8080808080FF800B33
:103590000B160C00FF7100010003E0F9202120410F
:1035A0002051208920FA20022004C00B0B160C00A9
:1035B000FF7FC01100110011001100FFE011001188
:1035C000002100210041000B0B160C00FF210022FE
:1035D00000F44057E0502057C094405440244057D6
:1035E000C094400B0B160C00FF11000A007FC004B2
:1035F000000400FFE004000A0011002080C0600AFF
:103600000B160C00FF5FC0004084408440BF408424
:10361000408C409440A4408C4081C00B0B160C00A1
:10362000FF240027C024002400FFE00000144024F1
:103630008047000C0070000B0B160C00FF24800468
:10364000800FC0E48024803FE024802480288050C4
:10365000008FE00B0B160C00FF08000800FF8088AD
:10366000808880FF8088808880FFA0882007E00B0A
:103670000B160C00FF27802480F480248074806C5B
:1036800080A480248024A028A030600A0B160C009F
:10369000FFFFC0804080409E40924092409E40800C
:1036A000408040FFC080400B0B160C00FF7FC044E1
:1036B000005FC050405FC050405FC042004A80522F
:1036C00040A6200B0B160C00FF040007E004007F4F
:1036D000C04040404040407FC00000524089200B25
:1036E0000B160C00FF4780248004800480E86020D3
:1036F000002FC024402280310026C00B0B160C0086
:10370000FF7FC04A407FC00400FFE004003F8020EC
:103710008024802480FFE00B0B160C00FF22004F5A
:10372000E048204FE0C8004FE04AA05AA06FE04AAE
:10373000A048600B0B160C00FFF3C024402A80F158
:1037400000228065E07220A540208023002C000B21
:103750000B160C00FF0400FFE080200000FFE004D7
:1037600000240027C0240054008FE00B0B160C002F
:10377000FF73E01080510023E0FA202AA022A0224B
:10378000A02080214062200B0B160C00FF2200F7C6
:103790008022803680E2A025A024606820000052AC
:1037A0004089200B0B160C00FF73C0420042007BC7
:1037B000E04A404A407A404A404240444088400BF8
:1037C0000B160C00FF0800FFE008001FC030405F30
:1037D000C090401FC01040104010C00B0B160C00D2
:1037E000FF02007FE0420042005FC0420047004A03
:1037F000805240622082000B0B160C00FFF3C09633
:10380000409180A660A10097C091009500E7E081FB
:103810000081000B0B160C00FF0F8088804F800882
:10382000808F8040001FC03540554095403FE00BE1
:103830000B160C00FF27E02080F8802080208038C5
:1038400080E08020802080208061800B0B160C009F
:10385000FF1FE0910057C0144017C0944057C0119B
:10386000005540992023000B0B160C00FF208027E9
:10387000E0F240218022403420E2402240224022D7
:103880004064400B0B160C00FF410041004FE0E983
:1038900020492049206FE0C92049204920CFE00B72
:1038A0000B160C00FF2100F1004FE0A920F9202F9A
:1038B000E03920E92029202FE028200B0B160C00EE
:1038C000FF8FE049200920CBA049204FE048204B42
:1038D000A04AA06BA050E00B0B160C00FF7FC004A9
:1038E000004440244024800400FFE004000400045D
:1038F0000004000B0B160C00FF820042001FE0C208
:10390000005FC052405FC047004A805240BFE00B9A
:103910000B160C00FF04007FE048807FE048804FDA
:103920008040005FC04840478098600B0B160C0039
:10393000FF0100EFE0A100A440AFE0A440AFE0A988
:1039400020E92002800C600B0B160C00FF14C0F65F
:10395000A0BC60A780A880BFE0A920EFE009200FED
:10396000E009200B0B160C00FF7F80408042806234
:103970008054804880488054A062A0406080200B22
:103980000B160C00FF04007FE040207FE040007D2C
:10399000E054204CA0546064A08D600B0B160C000A
:1039A000FF82005FE0040008409FE040200A800A98
:1039B000804AA092A022600B0B160C00FF41004F22
:1039C000E0E820428044406820C7C04100410041F7
:1039D00000CFE00B0B160C00FF50207D209120FF44
:1039E0002011207D205520552054205C2010E00B14
:1039F0000B160C00FF3F8020803F802080FFE048B6
:103A0000007BC0494079404880FB600B0B160C00DE
:103A1000FF04000400040024802440444044208427
:103A200020040004001C000B0B160C00FF04000413
:103A3000000400FFE004000A000A00110011002049
:103A400080C060090A140A0000888049000800FF4D
:103A500080008000807F8000800080FF800B0B163C
:103A60000C00FF21001200FFE0000078804A807AFD
:103A7000804A807A80488059800B0B160C00FF2703
:103A8000C000000000EFE02100220024402FE020D1
:103A90002050008FE00B0B160C00FF20802700F950
:103AA0000021C077002100F9E027007120A9202023
:103AB000E00B0B160C00FF10401040FDE0104038EA
:103AC000C03540524094401040104010C00B0B16BF
:103AD0000C00FF0040F8400BE00840884052405185
:103AE0004021405040484089C00A0B160C00FF841A
:103AF0000084408480F5008600840084009400A443
:103B000040C44083C00B0B160C00FF11207D001138
:103B100000FFE02900FD4049407C8008A0FD600ACC
:103B2000200B0B160C00FF17C02440244067C0A1D7
:103B3000002FE0210023802540292021000B0B16B7
:103B40000C00FF0800FFE0100027C020806100AFDC
:103B5000E021002100210023000B0B160C00FF24A4
:103B6000002FE0B400A480A4A0AAC02A8028802945
:103B700040324024200B0B160C00FF7FE080003FFA
:103B8000C020403FC010001FC010402880470038B0
:103B9000E00B0B160C00FF7FE040004000400040AF
:103BA000004000400040004000400080000B0B1629
:103BB0000C00FFFFE004007FC044407FC044407F12
:103BC000C0440024001800E7E00B0B160C00FF11A6
:103BD000E0FD00450029E0FD4011407D40114055C9
:103BE00040924034400B0B160C00FF21005FE04078
:103BF00000CFC040004FC040004FC048404FC048B9
:103C0000400B0B160C00FF04007FC040407FC040FB
:103C1000407FC040407FC004405220BFA00B0B1625
:103C20000C00FF7FC044407FC044407FC004001BA5
:103C300000E0E01100110061000B0B160C00FFFF0B
:103C4000E0040008007FE049204F2049204F204930
:103C50002049207FE00B0B160C00FFFDE056407959
:103C600040388055409220FFE0040027C02400FF28
:103C7000E00B0B160C00FFFB8052007BE01240FAB9
:103C80004014403F8020803F8020803F800B0B16F7
:103C90000C00FF1FE0200027C06440A7C020002FB9
:103CA000E0282027C0210023000B0B160C00FFF397
:103CB000E082208220FA20822082208A20B220C244
:103CC000E0020002000B0B160C00FF248046A095BA
:103CD000C0E48027E04480F5C006A03480C480079B
:103CE000E00B0B160C00FF27C0410087E0E020220C
:103CF000804580F2800FE03080C14002200B0B161F
:103D00000C00FF02000200220023C0220022002239
:103D100000220022002200FFE0090B160C00FF0821
:103D2000000800FF80888088808880FF80888088E5
:103D3000808880FF800B0B160C00FF210053A041F0
:103D400000F7E0510053C0564053C05A4053C042A0
:103D5000400B0B160C00FF7FC0040004000400FFA2
:103D6000E00A000A0012002220422081E00B0B161C
:103D70000C00FF110021002FE06100A380238025AB
:103D80004025402920210021000B0B160C00FFF7D5
:103D9000E09420F42097E09480F48097E09480F4FD
:103DA000A0966004200B0B160C00FF7BE0948004AF
:103DB000007FC00400FFE00100FFE02100110007C8
:103DC000000B0B160C00FF210047C091002FE06094
:103DD00080AFE0208024802280208023800B0B167F
:103DE0000C00FF27C02440F7C02EE02AA03EE0E1EF
:103DF000002FE02380254069200B0B160C00FF14D8
:103E00000027E02A006200A3C02200220023E02253
:103E1000002200220000060900FE07019203212073
:103E2000FFFF08FF07FF000000060000010707066C
:103E3000020080808080800080030202060105A0CD
:103E4000A00507070600005050F850F8505005072D
:103E5000070600002078A07028F02005070706005C
:103E600000C0C810204098180507070600006090A1
:103E7000A040A89068020303060104C04080030725
:103E800007060100204080808040200307070601CC
:103E9000008040202020408005050506000120A864
:103EA00070A8200505050600012020F82020020347
:103EB000030602FFC04080050101060003F802026C
:103EC00002060200C0C005050506000108102040DA
:103ED00080050707060000708888888888700307B7
:103EE0000706010040C040404040E00507070600CB
:103EF00000708808708080F8050707060000F81039
:103F000020100808F005070706000010305090F850
:103F10001010050707060000F880F00808887005F3
:103F20000707060000708080F08888700507070684
:103F30000000F80810202020200507070600007068
:103F40008888708888700507070600007088887860
:103F5000080870020505060200C0C000C0C00206C5
:103F6000060602FFC0C000C040800407070600002C
:103F700010204080402010050303060002F800F8DE
:103F80000407070601008040201020408005070735
:103F900006000070880810200020050707060000B2
:103FA00070880868A8A87005070706000070888850
:103FB000F8888888050707060000F08888F0888858
:103FC000F00507070600007088808080887005076C
:103FD00007060000F08888888888F0050707060033
:103FE00000F88080F08080F8050707060000F88060
:103FF00080F0808080050707060000708880B88800
:104000008870050707060000888888F88888880176
:1040100007070602008080808080808005070706F1
:104020000000381010101090600507070600008887
:1040300090A0C0A0908805070706000080808080BF
:104040008080F805070706000088D8A88888888837
:104050000507070600008888C8A89888880507070C
:1040600006000070888888888870050707060000A9
:10407000F08888F080808005070706000070888837
:1040800088A89068050707060000F08888F0A090CF
:1040900088050707060000788080700808F005078B
:1040A00007060000F8202020202020050707060032
:1040B0000088888888888870050707060000888837
:1040C0008888885020050707060000888888888827
:1040D000A8500507070600008888502050888805EA
:1040E000070706000088888850202020050707065B
:1040F0000000F80810204080F8030707060100E0E0
:104100008080808080E00505050600018040201049
:1041100008030707060100E02020202020E0050317
:1041200003060004205088050101060000F8020281
:104130000206020580400505050600007008788823
:10414000780507070600008080B0C88888F005055C
:1041500005060000708080887005070706000008CB
:104160000868988888780505050600007088F8803A
:10417000700507070600003048E040404040050653
:10418000060600FF7088887808700507070600009B
:104190008080B0C8888888010707060200800080F8
:1041A000808080800308080601FF20002020202056
:1041B000A040040707060000808090A0C0A09003E4
:1041C0000707060100C04040404040E005050506E5
:1041D0000000D0A8A8A8A8050505060000B0C8885A
:1041E0008888050505060000708888887005060621
:1041F0000600FFF08888F080800506060600FF783C
:104200008888780808050505060000B0C880808009
:1042100005050506000070807008F0040707060019
:10422000004040E040404030050505060000888819
:1042300088986805050506000088888850200505CF
:10424000050600008888A8A8500505050600008816
:10425000502050880506060600FF88888878087078
:10426000050505060000F8102040F80307070601C1
:104270000020404080404020010707060200808067
:104280008080808080030707060100804040204036
:10429000408005020206000268900000000600004F
:1042A00000000006000000000006000000000006FC
:1042B00000000000000600000000000600000000F2
:1042C00000060000000000060000000000060000DC
:1042D00000000006000000000006000000000006CC
:1042E00000000000000600000000000600000000C2
:1042F00000060000000000060000000000060000AC
:10430000000000060000000000060000000000069B
:104310000000000000060000000000060000000091
:10432000000600000000000600000000000600007B
:10433000000000060000000000060000000000066B
:104340000000000000060000000000060000000061
:10435000000600000000000600000000000600004B
:1043600000000006000001070706020080008080B0
:104370008080800507070600002070A8A0A8702094
:10438000050707060000304040E04050A80505053D
:1043900006000088705070880507070600008850E6
:1043A00020F820F8200107070602008080800080A6
:1043B000808005080806000030482050502090609A
:1043C000030101060107A0050707060000F888B8E9
:1043D000B8B888F8050707060001700878887800E3
:1043E000F80505050600012850A05028050303061E
:1043F0000001F808080202020602064080050707CD
:10440000060000F888A88898A8F8050101060006AB
:10441000F804040406000360909060050707060096
:10442000002020F8202000F8040505060003609015
:104430002040F0030505060003E020E020E0020232
:104440000206020640800508080600FF8888888862
:1044500098E8808005070706000078989878181873
:1044600018020202060202C0C00202020602FF4057
:104470008003050506000340C04040E0050707062D
:104480000001708888887000F8050505060001A005
:10449000502850A00507070600008890A858B808C3
:1044A000080507070600008890B8489820380508D6
:1044B00008060000C040C048D838080805070706AD
:1044C0000000200020408088700508080600004099
:1044D00020007088F8888805080806000010200071
:1044E0007088F88888050808060000205000708849
:1044F000F888880508080600006890007088F88829
:10450000880508080600005000708888F88888052B
:1045100008080600002050207088F88888050707E2
:104520000600003860A0B8E0A0B80508080600FF43
:104530007088808088702060050808060000402090
:1045400000F880F080F8050808060000081000F860
:1045500080F080F8050808060000205000F880F080
:1045600080F80507070600005000F880F080F80387
:104570000808060100804000E0404040E0030808D1
:10458000060100204000E0404040E003080806012A
:104590000040A000E0404040E0030707060100A003
:1045A00000E0404040E0050707060000704848E88A
:1045B00048487005080806000068900088C8A89858
:1045C00088050808060000402070888888887005E3
:1045D0000808060000102070888888887005080880
:1045E00006000020500070888888700508080600C2
:1045F00000689000708888887005080806000050E0
:10460000007088888888700505050600018850209C
:1046100050880508080600FF1070A8A8A8A87040D8
:1046200005080806000040208888888888700508EA
:104630000806000010208888888888700508080609
:10464000000020500088888888700508080600004F
:1046500050008888888888700508080600001020A7
:104660008850202020200509090600FFC04070481E
:1046700048704040E00408080601FF609090A09058
:1046800090E0800508080600004020007008788847
:104690007805080806000010200070087888780562
:1046A000080806000020500070087888780508087F
:1046B00006000068900070087888780507070600F3
:1046C000005000700878887805080806000020501F
:1046D000207008788878050606060000D02878A0A3
:1046E000A8500506060600FF708088702060050847
:1046F000080600004020007088F880700508080651
:1047000000001020007088F880700508080600007E
:104710002050007088F880700507070600005000E0
:104720007088F8807003080806010080400040C0CF
:104730004040E003080806010020400040C040401F
:10474000E003080806010040A00040C04040E0032C
:104750000707060100A00040C04040E0050707062B
:104760000000A040A01078887005080806000068C6
:104770009000B0C88888880508080600004020001E
:10478000708888887005080806000010200070886E
:104790008888700508080600002050007088888806
:1047A0007005080806000068900070888888700509
:1047B0000707060000500070888888700505050608
:1047C00000012000F800200507070600FF1070A870
:1047D000A8A87040050808060000402000888888C6
:1047E00098680508080600001020008888889868E6
:1047F000050808060000205000888888986805078A
:104800000706000050008888889868050909060096
:10481000FF102000888888F808700407070601FF49
:10482000C04060506040E00508080600FF50008866
:10483000888878087000002100240027002A002DB5
:10484000003000330001010000040107010A01509B
:1048500072696E742070617573656400473020461C
:104860003330303020583020593000004739322062
:10487000452573004730205A2573004D31303920CB
:10488000532569004D31343020532569004D3130B6
:10489000362053323535004D3130392053256900EB
:1048A0004D31393020532569005072696E74206192
:1048B000626F7274656400506F7765722D4C6F7310
:1048C00073205265636F766572793F00A4A5F4F595
:1048D000CAF3203F00506F7765722D4C6F737320C1
:1048E0005265636F766572793F00496E666F20731B
:1048F000637265656E00ECEDEEEF00496E666F2049
:1049000073637265656E0054756E6500CFF0005478
:10491000756E65004C616E6775616765004C616E10
:104920006775616765004C616E677561676500500A
:1049300061757365207072696E7400F1F2CAF300DC
:104940005061757365207072696E74005072696E83
:10495000742066726F6D20544600AFB000507269CB
:104960006E742066726F6D205446004E6F20544660
:10497000206361726400F9A8004E6F2054462063E2
:1049800061726400656E7175657565696E67202278
:10499000006563686F3A002E0A006F70656E2066CE
:1049A00061696C65642C2046696C653A2000577219
:1049B0006974696E6720746F2066696C653A2000BF
:1049C0004D36303020423000537065656400D1D2DE
:1049D00000537065656400466C6F7700CCADD1D232
:1049E00000466C6F77004261627973746570205A7B
:1049F000004261627973746570205A004261627985
:104A000073746570205A0050726568656174205037
:104A10004C4120456E640050726568656174205099
:104A20004C4120456E640050726568656174205089
:104A30004C4120456E640050726568656174205079
:104A40004C41204265640050726568656174205075
:104A50004C4120C4C7005072656865617420504C99
:104A60004120426564002E0A0046696C652862692F
:104A70006E292064656C657465640044656C6574BA
:104A8000696F6E2862696E29206661696C656400D1
:104A90004572726F722077726974696E6720746FE5
:104AA00020454550524F4D210A00526573656E6492
:104AB0003A20006F6B0020746F6F206C6F6E672060
:104AC000657874727573696F6E2070726576656E45
:104AD0007465640A0020636F6C6420657874727575
:104AE00073696F6E2070726576656E7465640A0016
:104AF000627573793A2070617573656420666F72B0
:104B000020696E7075740A00627573793A2070615D
:104B10007573656420666F7220757365720A006232
:104B20007573793A2070726F63657373696E670A83
:104B3000004B494C4C45442E20004B494C4C2063C3
:104B40006175736564206279204B494C4C20627515
:104B500074746F6E2F70696E0A004B494C4C45445B
:104B60002E20004B494C4C206361757365642062B4
:104B70007920746F6F206D75636820696E6163744E
:104B80006976652074696D65202D20637572726584
:104B90006E7420636F6D6D616E643A2000006EF577
:104BA00038F311241FBECFEFD1E2DEBFCDBF00E04E
:104BB0000CBF15E0A0E0B2E0ECEDFEE002E00BBFC0
:104BC00002C007900D92A236B107D9F72BE1A2E6F9
:104BD000B5E001C01D92A039B207E1F715E2C0EDC2
:104BE000D5E200E006C021970109802FFE010F9455
:104BF000D006CF3CD10780E00807A9F70E9470EDEE
:104C00000D945D070C9400002F923F924F925F929B
:104C10006F927F928F929F92AF92BF92CF92DF92CC
:104C2000EF92FF920F931F93CF93DF93CDB7DEB731
:104C3000C056D1090FB6F894DEBF0FBECDBF0091AC
:104C4000C80F20E6029F80011124085B114F80915C
:104C50004B1780FF1AC0E1E9F9E484917F013FEF2F
:104C6000E31AF30A811102C0780104C00E941E42B7
:104C7000F701F3CFD7018D917D01882319F00E94B0
:104C80001E42F8CF8AE00E941E4281E090E090939D
:104C9000731B8093721B10928D0510928C058FE30D
:104CA0008093900510928F0510928E0584E0ECE7BA
:104CB000F5E0DF011D928A95E9F7F80180810F5F29
:104CC0001F4F8032D1F38E34C9F4818190ED980F5B
:104CD0009A3020F08D3211F08B3281F4DF01129680
:104CE0009D012F5F3F4F8C9180538A3010F4D90182
:104CF000F7CFFD01119680818032D9F3F0937B1BB1
:104D0000E0937A1B7F01BFEFEB1AFB0A10816AE286
:104D100070E0C7010F942507009731F0FC0131972F
:104D200080818032E1F311821D3431F1143521F19B
:104D3000173411F1E1E9F9E484918F010F5F1F4FFE
:104D4000882321F00E941E42F801F6CF60917A1B61
:104D500070917B1B83E298E00E94525582E20E9490
:104D60001E428AE00E941E421092731B1092721B18
:104D70000E9437EC0C94DD3CC701FC0120810196B8
:104D80002032D9F320532A30A8F61093900580E002
:104D900090E06AE03196DF0111972C91022E000C11
:104DA000330B20533109689FA001699F500D1124D6
:104DB000C901840F951F208120532A3058F3909306
:104DC0008F0580938E05DF0131962C912032D9F327
:104DD0001D34A9F48E319105D1F03CF48731910551
:104DE000B1F08C31910559F412C0853791053CF032
:104DF0008737910564F0803AE3E09E0741F0009127
:104E00007A1B60E070E0EE24E394F12C43C0B09391
:104E10008D05A0938C057FC0213209F445C03FEB7E
:104E2000B32EB20E49E1A42EAB1408F45FC0AF015B
:104E3000FA0130814F5F5F4F3032D1F340ED430FC5
:104E40004A3008F047C0AF018B2C912C640123E05D
:104E5000D594C7942A95E1F7960124583A4F6901F1
:104E60002B2D2770D70102C0AA0FBB1F2A95E2F78E
:104E70009D01D6013C91232B2C9341155105A1F1A5
:104E8000401BD401AE59BA4F4C93208121542A3192
:104E900090F5DF01FD0131962C912111BDCF70936A
:104EA0008D0560938C0537C01D3409F0B8CF803272
:104EB000910509F0B4CFF0938D05E0938C0563E282
:104EC00070E0CF010F942507009709F4A9C6DC0113
:104ED0001C9221C043ED430F423008F4B4CF3B3263
:104EE00011F00C94643CAFCF40E0CBCF611571055D
:104EF00061F6BD01CACFDF01AD014F5F5F4F2C915D
:104F000020532A3010F4DA01F7CFFD0111962081E9
:104F10002032D9F3BECF809190058D3409F480C63C
:104F2000843511F40C94283C873409F003CF209089
:104F30008E0530908F05B4E02B16310409F40DC5B1
:104F40004CF437FC11CF80910502F2E02F163104AA
:104F500004F517C02AE52216310409F4F9C534F422
:104F60004CE12416310409F43DC5FECE5BE525165F
:104F7000310409F4F0C58CE52816310409F4EFC5B5
:104F8000F3CE882309F4F0CE0E94A0410E945BEB8F
:104F9000EBCE882309F4E8CE0E94A04182E50E946E
:104FA0009441882309F43CC10E9432414B015C01C9
:104FB00020E030E0A9010E9447FD882309F45CC18C
:104FC0002091CA193091CB194091CC195091CD192B
:104FD0002DA73EA74FA758AB8091CE199091CF191E
:104FE000A091D019B091D11989AB9AABABABBCAB46
:104FF0002091A6133091A7134091A8135091A913A3
:1050000029AF3AAF4BAF5CAF8091AA139091AB132D
:10501000A091AC13B091AD138DAB9EABAFABB8AF5D
:105020006DA57EA58FA598A90E9447FD81110DC091
:105030002DA93EA94FA958AD69A97AA98BA99CA908
:105040000E9447FD882309F417C111E092E0291658
:10505000310409F010E020E030E0A901C501B401FD
:105060000E9447FD881F8827881F181759F020E0E5
:1050700030E040E85FEB29962CAF3DAF4EAF5FAF1D
:1050800029970AC080E090E0A0E8BFE329968CAFA2
:105090009DAFAEAFBFAF29972DA53EA54FA558A98F
:1050A00069AD7AAD8BAD9CAD0F94E00325966CAFE6
:1050B0007DAF8EAF9FAF259729A93AA94BA95CA9CF
:1050C0006DA97EA98FA998AD0F94E0036B017C01B7
:1050D00025962CAD3DAD4EAD5FAD2597CA01B9010A
:1050E0000E94ACFD2B013C01A7019601C701B6014E
:1050F0000E94ACFD9B01AC01C301B2010F94E1031E
:105100000F944D0621966CAF7DAF8EAF9FAF219768
:1051100020E030E040E05FE30E94ACFD2B013C0169
:10512000A5019401C501B4010E94ACFD4B015C01D5
:10513000A3019201C301B2010E94ACFD9B01AC012D
:10514000C501B4010F94E0030F944D0629962CADD0
:105150003DAD4EAD5FAD29970E94ACFD4B015C01AA
:10516000C701B601905821962CAD3DAD4EAD5FAD57
:1051700021970F94BD04A50194010E94ACFD6B0121
:105180007C0129AD3AAD4BAD5CAD6DA57EA58FA57B
:1051900098A90F94E10320E030E040E05FE30E9433
:1051A000ACFD9B01AC01C701B6010F94E1032DA535
:1051B0003EA54FA558A90F94E0036B017C012DA9D2
:1051C0003EA94FA958AD69A97AA98BA99CA90F94AA
:1051D000E10320E030E040E05FE30E94ACFD2B0102
:1051E0003C0121962CAD3DAD4EAD5FAD219725968E
:1051F0006CAD7DAD8EAD9FAD25970F94BD04A5011F
:1052000094010E94ACFD9B01AC01C301B2010F945B
:10521000E10329A93AA94BA95CA90F94E00314C0A2
:1052200089E40E949441882329F00E9432416B0155
:105230007C0103C0C12CD12C76018AE40E949441E8
:105240008823E9F00E94324169AF7AAF8BAF9CAFFF
:1052500020E030E0A901C701B6010E9447FD81119D
:105260001BC020E030E0A90169AD7AAD8BAD9CADEB
:105270000E9447FD811110C0EBEEFDE15BC320E011
:1052800030E0A901C701B6010E9447FD8823A1F3C0
:1052900019AE1AAE1BAE1CAEA701960150582DA731
:1052A0003EA74FA758AB89AD9AADABADBCADB058DA
:1052B00089AB9AABABABBCABCA01B9010E94ACFDE8
:1052C0004B015C0129A93AA94BA95CA9CA01B90102
:1052D0000E94ACFD9B01AC01C501B4010F94E10338
:1052E0000F944D0665966CAF7DAF8EAF9FAF6597FF
:1052F0002091CA193091CB194091CC195091CD19F8
:105300002DAB3EAB4FAB58AFA70196016DA97EA95F
:105310008FA998AD0F94E10329966CAF7DAF8EAF46
:105320009FAF29978091CE199091CF19A091D01954
:10533000B091D11921968CAF9DAFAEAFBFAF219781
:1053400029AD3AAD4BAD5CADBC01CD010F94E1038D
:1053500069966CAF7DAF8EAF9FAF69972091A61312
:105360003091A7134091A8135091A9132D962CAFFB
:105370003DAF4EAF5FAF2D9729962CAD3DAD4EADF5
:105380005FAD29972D966CAD7DAD8EAD9FAD2D9700
:105390000F94E0036B017C018091AA139091AB13F1
:1053A000A091AC13B091AD1361968CAF9DAFAEAF31
:1053B000BFAF619769962CAD3DAD4EAD5FAD6997BE
:1053C000BC01CD010F94E0034B015C012091D21987
:1053D0003091D3194091D4195091D5196D962CAFB5
:1053E0003DAF4EAF5FAF6D976091AE137091AF134D
:1053F0008091B0139091B1130F94E00325966CAF98
:105400007DAF8EAF9FAF2597A70196016DA57EA5B5
:105410008FA598A90E94ACFD2B013C01A501940128
:1054200069A97AA98BA99CA90E94ACFD9B01AC013A
:10543000C301B2010F94E1032B013C01A5019401CA
:105440006DA57EA58FA598A90E94ACFD4B015C01BE
:10545000A701960169A97AA98BA99CA90E94ACFD14
:105460009B01AC01C501B4010F94E003A3019201BB
:105470000F9454046B017C0120E030E0A9010E94EC
:1054800047FD87FF0AC02BED3FE049EC50E4C70120
:10549000B6010F94E1036B017C0132E02316310465
:1054A00051F42BED3FE049EC50E4C701B6010F94F5
:1054B000E0036B017C0120E030E0A901C701B601E7
:1054C0000E9447FD811126C02D962CAD3DAD4EADFD
:1054D0005FAD2D976DA97EA98FA998AD0E9447FD5C
:1054E000811118C061962CAD3DAD4EAD5FAD619799
:1054F00021966CAD7DAD8EAD9FAD21970E9447FD8D
:10550000811108C01BEDC12E1FE0D12E19ECE12E38
:1055100010E4F12EA701960165966CAD7DAD8EADC0
:105520009FAD65970E94ACFD9B01AC010E94ACFD54
:105530004B015C0125962CAD3DAD4EAD5FAD259781
:10554000CA01B9010E94ACFD9B01AC01C501B401C7
:105550000F94E1030F944D064B015C012FE632E1FD
:1055600043E85AE30E9447FD87FDDEC1C501B4014F
:105570000F9456050F942A057EAF6DAF672B21F46B
:1055800021E030E03EAF2DAF4090D6195090D719B2
:105590006090D8197090D919ADACBEACB50180E05F
:1055A00090E00E944BFD4B015C019B01AC01C701E7
:1055B000B6010F94BD046DAB7EAB8FAB98AFA50168
:1055C000940125966CAD7DAD8EAD9FAD25970F9462
:1055D000BD0465966CAF7DAF8EAF9FAF6597A3019D
:1055E00092016091B2137091B3138091B4139091B2
:1055F000B5130F94E003A50194010F94BD04A19687
:105600006CAF7DAF8EAF9FAFA1972DA93EA94FA9DB
:1056100058ADCA01B9010E94ACFD20E030E040E085
:105620005FE30E94ACFD9B01AC0160E070E080E8AC
:105630009FE30F94E00325966CAF7DAF8EAF9FAFD5
:1056400025976D962CAD3DAD4EAD5FAD6D9729871D
:105650003A874B875C874D865E866F86788A609135
:105660007C0270917D02072E000C880B990B0E9422
:105670004DFD2091190230911A0240911B02509168
:105680001C020E94ACFD2AE037ED43E25CE30E947D
:10569000ACFD2D966CAF7DAF8EAF9FAF2D970E9466
:1056A000D9CF9B01AC0128533F4F4F4F5F4F6196BD
:1056B0002CAF3DAF4EAF5FAF61974DA45EA46FA41A
:1056C00078A822242394312CB9E1DB2EADACBEACFA
:1056D000A214B30409F414C10E94444A0E94D9CF11
:1056E000DC01CB0161962CAD3DAD4EAD5FAD619758
:1056F000821B930BA40BB50BB7FD11C00E94D9CF31
:105700009B01AC0128533F4F4F4F5F4F61962CAF29
:105710003DAF4EAF5FAF619780E00E94A8E8DA949A
:10572000DD2009F441C029A93AA94BA95CA9259615
:105730006CAD7DAD8EAD9FAD25970E94ACFD4B014C
:105740005C019201A3016DA97EA98FA998AD0E9469
:10575000ACFDA50194010F94E1037B018C01920142
:10576000A30125966CAD7DAD8EAD9FAD25970E94B2
:10577000ACFD4B015C0129A93AA94BA95CA96DA913
:105780007EA98FA998AD0E94ACFD9B01AC01C5011B
:10579000B4010F94E0032B013C01C701D80189AB90
:1057A0009AABABABBCAB4DC0B10180E090E00E94C6
:1057B0004BFD2DA93EA94FA958AD0E94ACFD4B0150
:1057C0005C010F94BA046B017C01C501B4010F9414
:1057D00043064B015C01A70196016DA57EA58FA52F
:1057E00098A90E94ACFD2B013C0129AD3AAD4BAD0F
:1057F0005CADC501B4010E94ACFDA30192010F9400
:10580000E1032B013C01A50194016DA57EA58FA5A7
:1058100098A90E94ACFD4B015C0129AD3AAD4BAD9E
:105820005CADC701B6010E94ACFD9B01AC01C50196
:10583000B4010F94E00369AB7AAB8BAB9CABF9E19D
:10584000DF2E9201A30129966CAD7DAD8EAD9FAD8B
:1058500029970F94E10369837A838B839C8329A919
:105860003AA94BA95CA969966CAD7DAD8EAD9FAD93
:1058700069970F94E1036D837E838F839887659684
:105880002CAD3DAD4EAD5FAD659769857A858B8555
:105890009C850F94E10369877A878B879C87A19603
:1058A0002CAD3DAD4EAD5FADA1976D857E858F85ED
:1058B00098890F94E1036D877E878F87988B8091FD
:1058C0002902882321F0CE0101960E94ADB0C0903C
:1058D0005E0B2D96ECACFDAC0EAD1FAD2D979E0171
:1058E000235F3F4FAE01475F5F4FBE016B5F7F4F4E
:1058F000CE0101960E9405573FEF231A330AE6CEE8
:10590000C0905E0B2D96ECACFDAC0EAD1FAD2D978F
:1059100022EB33E14EEA53E16AEA73E186EA93E16E
:105920000E9405570E94613F0E9413421DCA0E94B7
:105930001E42F80184918F010F5F1F4F8111F7CF35
:10594000EBE3F3E084918F010F5F1F4F882309F48D
:105950000BCA0E941E42F801F5CF80E50E949441D7
:10596000882329F00E94F2406B017C0103C0C12C06
:10597000D12C760183E50E949441882361F00E9436
:10598000324120E030E04AE754E40E94ACFD0F943D
:105990002A056B017C010E94354D809137028111EF
:1059A00005C060E081E593E00E948FD40E9413421D
:1059B0008091240E9091250EA091260EB091270E75
:1059C000C80ED91EEA1EFB1E0E94D9CFDC01CB01F6
:1059D0008C199D09AE09BF09B7FFC6C980E00E94B6
:1059E000A8E8F2CF0E94354D8091190290911A02D9
:1059F000A0911B02B0911C028093880590938905A9
:105A0000A0938A05B0938B0580917C0290917D02D2
:105A1000909387058093860584E690E090937D02BD
:105A200080937C020E94134281E08093100E88E5EF
:105A30000E946541E82E89E50E946541082F8AE5AC
:105A40000E946541F82EE11005C0011105C011E06A
:105A5000182705C0011102C010E001C0182F0E94D4
:105A6000573F111105C0E11003C0002309F444C0E1
:105A700020E030E040EA50E4609196137091971373
:105A800080919813909199130F94E1036093AE1352
:105A90007093AF138093B0139093B1132091D219E8
:105AA0003091D3194091D4195091D5190F9407060C
:105AB00018167CF419821A821B821C829E012F5FA9
:105AC0003F4F4EEA53E16EEC79E18AEC99E10E9496
:105AD000683E111105C0E11003C0011107C00CC0E0
