:100000000C94391E0C946A1E0C946A1E0C946A1E81
:100010000C946A1E0C946A1E0C946A1E0C946A1E40
:100020000C946A1E0C946A1E0C946A1E0C946A1E30
:100030000C946A1E0C9450E80C946A1E0C946A1E70
:100040000C946A1E0C94FF510C946A1E0C946A1E48
:100050000C946A1E0C946A1E0C9487490D9429090D
:100060000C946A1E0C94E53D0C946A1E0C946A1E56
:100070000C946A1E0C946A1E0C946A1E0C946A1EE0
:100080000C94515A0C946A1E0C946A1E0C946A1EAD
:100090000C946A1E0C946A1E0C946A1E0C946A1EC0
:1000A0000C946A1E0C946A1E0C94235A0C946A1EBB
:1000B0000C946A1E0C946A1E0C946A1E0C94F559DA
:1000C0000C946A1E0C946A1E0C946A1E0C946A1E90
:1000D0000C946A1E0C946A1E0C946A1E0C946A1E80
:1000E0000C946A1EAF90B490B990C390CD90469195
:1000F000D790DF90E790F190FB90059114911E91BD
:100100004691289132913C9107D1EDD0F0D0F3D0B7
:10011000F6D002D1F9D013D1FCD0FFD0E4DD5CDC05
:1001200095DC20DE95DC95DC95DC95DC95DC95DCBA
:1001300095DC95DC95DC95DC95DC95DC95DC95DC37
:1001400095DC95DC95DC95DC95DC95DC95DC95DC27
:1001500095DC95DC95DC95DC1ADE95DC95DC95DC90
:1001600095DC95DC95DC95DC95DCF3DD95DC95DCA8
:1001700095DC95DC95DC95DC95DC95DC95DC95DCF7
:1001800037DE92DC1C01FC0008010A0106011A019D
:1001900014012001FA000201FE000E010C011E01F3
:1001A0001A01040112011001084AD73B3BCE016E2F
:1001B00084BCBFFDC12F3D6C74319ABD56833DDABE
:1001C0003D00C77F11BED9E4BB4C3E916BAAAABECD
:1001D000000000803F05A84CCDB2D44EB93836A9F6
:1001E000020C50B9918688083CA6AAAA2ABE000033
:1001F00000803F000D9400070D94F2060D9408074F
:100200000D9474170D9404070D941C070D94EB06C0
:100210000D94E1060D94E5060D9412070D940E075A
:100220000D9424070D9420070D94F6060D94C30633
:100230000D94DD180D9429070D94EF060D94160703
:100240000D94FA064E414E494E495459494E46CDF9
:10025000CCCC3D0AD7233C17B7D13877CC2B32957D
:1002600095E6241FB14F0A000020410000C842005B
:10027000401C4620BCBE4CCA1B0E5AAEC59D740025
:10028000407A10F35A00A0724E18090010A5D4E865
:100290000000E87648170000E40B54020000CA9AF8
:1002A0003B000000E1F5050000809698000000404A
:1002B000420F000000A0860100000010270000008F
:1002C00000E803000000006400000000000A0000D5
:1002D0000000000100000000002C76D888DC674F89
:1002E0000823DFC1DFAE59E1B1B796E5E3E453C6B9
:1002F0003AE651997696E8E6C28426EB898C9B62B1
:10030000ED407C6FFCEFBC9C9F40F2BAA56FA5F45A
:1003100090055A2AF75C936B6CF9676DC11BFCE082
:10032000E40D47FEF520E6B500D0ED902E030094D5
:100330003577050080841E080000204E0A0000006A
:10034000C80C333333330F986E12831141EF8D2174
:1003500014893BE65516CFFEE6DB18D1844B381BDB
:10036000F77C1D901DA4BBE424203284725E2281A0
:1003700000C9F124ECA1E53D27434F4D4D554E49B1
:10038000434154494F4E0044525952554E00455234
:10039000524F525300494E464F004543484F005379
:1003A0006C6565702E2E2E00486F6D6520585920A3
:1003B00066697273740A00486F6D6520585920662B
:1003C0006972737400205A3A200020593A20004282
:1003D000656420583A20004D65736820706F696E1F
:1003E000742063616E6E6F74206265207265736F36
:1003F0006C7665640A00436C69636B20746F2072CD
:100400006573756D652E2E2E004E6F206D6F7665AF
:100410002E00456E642066696C65206C6973740AF1
:1004200000426567696E2066696C65206C6973744B
:100430000A004D31323500286E6F2066696C6529DF
:10044000005344207072696E74696E67206279741B
:100450006520004E6F74205344207072696E746979
:100460006E670A0043757272656E742066696C650A
:100470003A20002569730025696D202569730025E0
:1004800069682025696D2025697300256964202528
:1004900069682025696D2025697300256979202503
:1004A0006964202569682025696D202569730050DD
:1004B00072696E742074696D653A20009A03950321
:1004C0008E03870379036F66660044454255473AB9
:1004D000004B494C4C45442E20004D3131332053C4
:1004E000006F6B005448334420424C546F7563686E
:1004F000204F66662E002C20002C200054484552C8
:100500004D414C5F50524F54454354494F4E00416A
:1005100055544F5245504F52545F53445F535441CA
:1005200054555300454D455247454E43595F504140
:100530005253455200434153455F4C494748545F2D
:100540004252494748544E45535300544F47474C35
:10055000455F4C494748545300534F465457415206
:10056000455F504F574552004255494C445F5045F6
:100570005243454E54004C4556454C494E475F4406
:10058000415441005A5F50524F4245004155544F2B
:100590004C4556454C005052494E545F4A4F42001C
:1005A00050524F4752455353004155544F524550B6
:1005B0004F52545F54454D5000564F4C554D455485
:1005C00052494300454550524F4D00534552494111
:1005D0004C5F584F4E5F584F4646004649524D5764
:1005E0004152455F4E414D453A4D61726C696E20F6
:1005F000544833442055312E52322E313720534F38
:10060000555243455F434F44455F55524C3A205045
:10061000524F544F434F4C5F56455253494F4E3AF9
:10062000312E30204D414348494E455F5459504585
:100630003A5448334420424C546F756368204558FF
:100640005452554445525F434F554E543A3120550C
:100650005549443A0A002F2F20004D31343520539C
:100660003C696E6465783E206F7574206F662072F9
:10067000616E67652028302D31290A002054002042
:100680005200416363656C65726174696F6E3A20F4
:1006900050005741524E494E4721204C6F77205A07
:1006A000204A65726B206D6179206C6561642074ED
:1006B0006F20756E77616E74656420706175736507
:1006C000732E0A0020466C6F773A200000013637FF
:1006D0002603FFFFFF353C3D380EFFFFFF312E3074
:1006E0003E12FFFFFFFF28FF0C0809FFFFFF1A1C47
:1006F00018FFFF2A08440AFF4350726F7465637441
:1007000065642050696E0A00206F7574206F662042
:1007100072616E67650A00536572766F20003A2039
:100720000020536572766F200050726F6265205A08
:10073000204F66667365743A200043290A0061629F
:100740006C656420286D696E2074656D70200043AF
:100750006F6C64206578747275646573206172656E
:1007600020004E6F2063617365206C696768740AAE
:10077000004D65736820706F696E742063616E6EE2
:100780006F74206265207265736F6C7665640A0011
:100790004D34323120696E636F72726563742070FC
:1007A0006172616D657465722075736167650A00B9
:1007B000454550524F4D204F4B0A003F5A206F7510
:1007C00074206F662072616E676520282D35207455
:1007D0006F2031290A003A200050726F6265205A5A
:1007E000204F6666736574004163746976652045C1
:1007F000787472756465723A2000496E76616C692E
:10080000642065787472756465720A00656E71752E
:10081000657565696E6720220020496E76616C6996
:1008200064206578747275646572200000000000B1
:1008300000000000000000000000FA430000FA433E
:100840000000FA430000000000000000000000006B
:100850000000000000000000000000000000000098
:100860000000000000000000000000000000000088
:10087000000000000000000000000003C0000000B5
:10088000000000000000000000000003C0000000A5
:10089000000000000000000000000003C000000095
:1008A000000000000000000000000003C000000085
:1008B000000000000000000000000003C000000075
:1008C000000000000000000000000003C000000065
:1008D000000000000000000000000003C000000055
:1008E000000000000000000000000003C000000045
:1008F000000000000000000000000007E000000011
:1009000000000000000000000000001FF8000000D0
:1009100000000000000000000000007FFE0000005A
:100920000000000000000000000000FFFF000000C9
:100930000000000000000000000003FFFFC00000F6
:100940000000000000000000000007FC3FE0000085
:10095000000000000000000000000FF81FF0000081
:10096000000000000000000000000FF00FF0000089
:10097000000000000000000000000FFC3FF000003D
:10098000000000000000000000000FFF7FF00000EA
:10099000000000000000000000000FFFFFF000005A
:1009A000000000000000000000000FFFFFF000004A
:1009B000000000000000000000000F9FF9F00000A0
:1009C000000000000000000000000F8FF1F00000A8
:1009D000000000000000000000000F83C1F00000D4
:1009E000000000000000000000000F83C1F00000C4
:1009F000000000000000000000000F83C1F00000B4
:100A0000000000000000000000001FC3C3F8000049
:100A1000000000000000000000007FF3CFFE000097
:100A200000000000000000000000FFFBDFFF0000EE
:100A300000000000000000000003FFFFFFFFC000F7
:100A40000000000000000000000FFDFFFFBFF000ED
:100A50000000000000000000000FF8FFFF1FF00082
:100A60000000000000000000000FE03FFC07F00065
:100A70000000000000000000000F800FF001F000F7
:100A80000000000000000000000F0007E000F00080
:100A90000000000000000000000000000000000056
:100AA0000000000000000000000000000000000046
:100AB0000000000000000000000000000000000036
:100AC0000000000000000000000000000000000026
:100AD0000000000000000000000000000000000016
:100AE0000000000000000000000000000000000006
:100AF00000000000000000000000000000000000F6
:100B000000000000000000001FFFFC1F1FE3FFC0EB
:100B100000000000000000001FFFFC1F3FF3FFE08B
:100B200000000000000000001FFFFC1F3FFBFFF063
:100B300000000000000000001FFFFC1F7CFBFFF80E
:100B4000000000000000000001F07C1F7C7BE1F849
:100B5000000000000000000001F07C1F787BE0F83E
:100B6000000000000000000001F07FFF03FBE078C0
:100B7000000000000000000001F07FFF03F3E078B8
:100B8000000000000000000001F07FFF03FBE078A0
:100B9000000000000000000001F07FFF03FBE07890
:100BA000000000000000000001F07C1F007BE078E6
:100BB000000000000000000001F07C1F787BE0F8DE
:100BC000000000000000000001F07C1F787BE1F8CD
:100BD000000000000000000001F07C1F7CFBFFF023
:100BE000000000000000000001F07C1F7FFBFFF010
:100BF000000000000000000001F07C1F3FF3FFE058
:100C0000000000000000000001F07C1F1FE3FF80D7
:100C100000000000000000000000000000000000D4
:100C200000000000000000000000000000000000C4
:100C300000000000000000000000000000000000B4
:100C4000000000001FFFFFFFFFFFFF60000000002B
:100C500001FF400000000000FF8000000000007F56
:100C600083CF00000C303F87FF80000C301F867957
:100C700080000C000F8C30C7838C30E78C30CFC7DE
:100C8000CC31F38C30DCECEC33B98C30D86C6C3379
:100C9000198C30D06C0C33198C30D86C0C33198C07
:100CA00030DC6C0E3B198C30CF7C079F198C30C721
:100CB0007C038F194000000000000260000000006B
:100CC00000061FFFFFFFFFFFF8494E56414C494405
:100CD0002044415441004D32342053256C6420544B
:100CE000256C64004D3233202573004739322E3095
:100CF000205A257320452573004D3432302053256A
:100D000069205A2573004732382052302058205924
:100D1000004731205A32004739322E30205A3000F5
:100D20004D343230205330205A30002020506C6136
:100D30006E6E657242756666657242797465733A65
:100D400020002046726565204D656D6F72793A20EE
:100D500000436F6D70696C65643A204E6F76203188
:100D60003120323031390A00207C20417574686F9F
:100D7000723A202854483344290A0000204C6173F9
:100D80007420557064617465643A2000544833449B
:100D90002055312E52322E31370A004D61726C6966
:100DA0006E0020536F6674776172652052657365BB
:100DB000740A00205761746368646F67205265731A
:100DC00065740A002042726F776E206F757420522E
:100DD000657365740A002045787465726E616C20D5
:100DE00052657365740A00506F77657255700A001A
:100DF00073746172740A006175746F25692E6700DF
:100E00006572726F722077726974696E6720746F91
:100E10002066696C650A0057726974696E67207490
:100E20006F2066696C653A2000456E6473746F705C
:100E30007320256320256320256320256300205A25
:100E40003A0020593A0020583A00656E6473746F76
:100E50007073206869743A2000446F6E6520736176
:100E600076696E672066696C652E0A004D3239001E
:100E70004578747275646572004D6F7665205A000E
:100E80004D6F76652059004D6F7665205800507281
:100E900065706172650052657365742045455052F6
:100EA0004F4D00436F6E74726F6C005265736574C2
:100EB00020454550524F4D0053746F726520736545
:100EC0007474696E677300424C546F7563680046B2
:100ED000696C616D656E74004D6F74696F6E00545E
:100EE000656D7065726174757265004D61696E0043
:100EF0004D33303320553120452569205325690075
:100F0000507265686561742041425320636F6E665C
:100F1000005072656865617420504C4120636F6EAB
:100F20006600504944204175746F74756E650050B9
:100F30004944204175746F74756E650050494420B2
:100F40004175746F74756E65005049442D440050AE
:100F500049442D44005049442D49005049442D49ED
:100F6000005049442D50005049442D500046616EB8
:100F70002073706565640046616E207370656564FA
:100F80000046616E207370656564004265640042CE
:100F9000656400426564004E6F7A7A6C65004E6F3E
:100FA0007A7A6C65004E6F7A7A6C6500436F6E7466
:100FB000726F6C0053746F72652073657474696E20
:100FC0006773004265640042656400426564004ED8
:100FD0006F7A7A6C65004E6F7A7A6C65004E6F7A24
:100FE0007A6C650046616E207370656564004661C9
:100FF0006E2073706565640046616E207370656570
:10100000640054656D706572617475726500565444
:10101000726176206D696E005654726176206D693A
:101020006E005654726176206D696E00566D696E61
:1010300000566D696E00566D696E00566D617820C0
:101040004500566D6178204500566D617820450059
:10105000566D6178205A00566D6178205A00566DA1
:101060006178205A00566D6178205900566D61787C
:10107000205900566D6178205900566D61782058CE
:1010800000566D6178205800566D61782058004DEB
:101090006F74696F6E0070012C0190012701B0011F
:1010A0002201C0011D01F0011801100213013002DC
:1010B0000E016002090190020401C002FF0000035A
:1010C000FA004003F5008003F000D003EB00200499
:1010D000E6007004E100E004DC004005D700C00534
:1010E000D2004006CD00D006C8008007C3003008FB
:1010F000BE00F008B900C009B400B00AAF00B00BE0
:10110000AA00D00CA500000EA000500F9B00C0103C
:1011100096005012910000148C00C0158700B01783
:101120008200B0197D00D01B7800001E73004020A3
:101130006E0090226900F024640040275F0090292F
:101140005A00E02B5500102E500020304B0010327A
:101150004600E033410090353C00103737007038CE
:101160003200A0392D00B03A2800A03B2300603C9B
:101170001E00103D1900903D1400103E0F00703EFF
:101180000A00C03E0500003F0000403FFBFF803FDB
:10119000F6FFC03FF1FF6265640A002C207379738B
:1011A00074656D2073746F7070656421204865618B
:1011B0007465725F49443A20004265642068656145
:1011C00074696E67206661696C6564004865617466
:1011D000696E67206661696C656400453120486509
:1011E0006174696E67206661696C65640048656159
:1011F00074696E67206661696C6564001000C902DD
:1012000010012C014001220170011801B0010E01F2
:10121000F00104015002FA00B002F0003003E600D1
:10122000D003DC009004D2007005C800A006BE0008
:101230000008B400B009AA00D00BA000600E960010
:1012400060118C000015820020197800C01D6E000E
:10125000A0226400B0275A00902C500000314600B4
:10126000E0343C0010383200903A2800603C1E0008
:10127000A03D1400803E0A00203F0000453120457B
:1012800072723A204D415854454D50004572723AA1
:10129000204D415854454D5020424544004D415841
:1012A00054454D50207472696767657265640045E6
:1012B00031204572723A204D494E54454D500045FB
:1012C00072723A204D494E54454D502042454400DB
:1012D0004D494E54454D502074726967676572657B
:1012E00064004D383420582059204500202F00201C
:1012F00042403A0020403A0024F4D43050C38E20BB
:10130000C2A24017828B7011127A910D816CD90A9A
:10131000A861E108C7586607615143061E4B5D0589
:10132000C145A7041A411104093D980371393103DD
:101330004036DB0265339102D4305402802E1D0208
:10134000632CEE01752AC501B028A0011027810188
:101350008F2564012B244B01E0223401AC211F01B5
:101360008D200D01801FFC00841EED00971DDF0005
:10137000B81CD200E61BC600201BBC00641AB200D9
:10138000B219A8000A19A0006A189900D117910093
:1013900040178B00B516840031167E00B315790016
:1013A0003A157300C7146F0058146A00EE136600F4
:1013B0008813630025135E00C7125B006C12570090
:1013C00015125400C111510070114F0021114B0032
:1013D000D61049008D10470046104400021042000C
:1013E000C00F4000800F3E00420F3C00060F3B0044
:1013F000CB0E3800930E37005C0E3500270E3400FC
:10140000F30D3200C10D3100900D3000600D2E0043
:10141000320D2D00050D2C00D90C2B00AE0C29002F
:10142000850C29005C0C2700350C27000E0C2600CB
:10143000E80B2400C40B2400A00B23007D0B230029
:101440005A0B2100390B2100180B2000F80A1F004D
:10145000D90A1E00BB0A1E009D0A1D00800A1D003D
:10146000630A1C00470A1B002C0A1B00110A1A0001
:10147000F7091A00DD091900C4091900AB091900A0
:10148000920917007B091800630917004C09160020
:1014900036091600200916000A091500F50815007E
:1014A000E0081400CC081400B8081400A4081400C4
:1014B000900813007D0812006B08130058081200F2
:1014C0004608120034081100230811001208110008
:1014D00001081100F0071000E0071000D00710000D
:1014E000C0071000B0070F00A107100091070E0001
:1014F00083070F0074070F0065070E0057070E00E3
:1015000049070E003B070D002E070E0020070D00B7
:1015100013070D0006070D00F9060C00ED060D007F
:10152000E0060C00D4060C00C8060C00BC060C003B
:10153000B0060C00A4060B0099060C008D060B00EB
:1015400082060B0077060B006C060B0061060A0092
:1015500057060B004C060A0042060A0038060A002D
:101560002E060A0024060A001A060A0010060900C0
:1015700007060A00FD050900F4050900EB0509004E
:10158000E2050900D9050900D0050900C7050900D1
:10159000BE050900B5050800AD050800A505090050
:1015A0009C050800940508008C05080084050800C7
:1015B0007C050800740508006C0507006505080037
:1015C0005D050700560508004E05070047050700A2
:1015D0004005080038050700310507002A05070007
:1015E000230507001C050600160507000F05070068
:1015F0000805060002050700FB040600F5040700C5
:10160000EE040600E8040600E2040700DB0406001E
:10161000D5040600CF040600C9040600C304060072
:10162000BD040600B7040600B1040500AC040600C2
:10163000A6040600A00405009B040600950405000E
:10164000900406008A040500850405008004060055
:101650007A04050075040500700405006B0405009C
:1016600066040500610405005C04050057040500DC
:10167000520405004D04050048040500430405001C
:101680003E0404003A04050035040500300404005B
:101690002C04050027040400230405001E04040094
:1016A0001A04040016040500110404000D040400CB
:1016B000090405000404040000040400FC03040001
:1016C000F8030400F4030400F0030400EC03040036
:1016D000E8030400E4030400E0030400DC03040066
:1016E000D8030400D4030400D0030400CC03040096
:1016F000C8030300C503030024F404D9201BC40C51
:101700005C0E9804C4095F0265077101F405F900D5
:10171000FB04B30048048700C10369005803550067
:1017200003034500BE023A008402310053022A003E
:101730002902250004022000E4011C00C801190050
:10174000AF0117009801140084011300710110000B
:101750006101100051010E0043010D0036010B0024
:101760002B010B0020010B00150109000C010900E1
:1017700003010800FB000800F3000800EB0007006D
:10178000E4000600DE000600D8000600D2000600D5
:10179000CC000500C7000500C2000500BD00040024
:1017A000B9000400B5000400B1000400AD0004005D
:1017B000A9000400A5000300A20003009F0004008C
:1017C0009B000300980003009500020093000300B3
:1017D000900003008D0002008B00030088000200CF
:1017E0008600020084000300810002007F000200E6
:1017F0007D0002007B0002007900020077000100FA
:101800007600020074000200720001007100020004
:101810006F0002006D0001006C0002006A00010010
:101820006900020067000100660001006500010018
:10183000640002006200010061000100600001001C
:101840005F0002005D0001005C0001005B00010020
:101850005A00010059000100580001005700010022
:101860005600010055000100540001005300000023
:10187000530001005200010051000100500001001E
:101880004F0001004E0000004E0001004D0001001D
:101890004C0001004B0000004B0001004A00010019
:1018A0004900010048000000480001004700010015
:1018B0004600000046000100450000004500010010
:1018C000440001004300000043000100420000000A
:1018D0004200010041000000410001004000010001
:1018E0003F0000003F0001003E0000003E000100FC
:1018F0003D0000003D0001003C0000003C000000F5
:101900003C0001003B0000003B0001003A000000E9
:101910003A000100390000003900010038000000E1
:1019200038000000380001003700000037000100D7
:1019300036000000360000003600010035000000CF
:1019400035000000350001003400000034000000C4
:1019500034000100330000003300000033000100B8
:1019600032000000320000003200010031000000AF
:1019700031000000310001003000000030000000A4
:10198000300001002F0000002F0000002F00000099
:101990002F0001002E0000002E0000002E0001008C
:1019A0002D0000002D0000002D0000002D00010082
:1019B0002C0000002C0000002C0000002C00010076
:1019C0002B0000002B0000002B0000002B0001006A
:1019D0002A0000002A0000002A0000002A0001005E
:1019E0002900000029000000290000002900000053
:1019F0002900010028000000280000002800000045
:101A00002800000028000100270000002700000037
:101A1000270000002700000027000100260000002A
:101A2000260000002600000026000000260001001D
:101A30002500000025000000250000002500000012
:101A40002500000025000100240000002400000003
:101A500024000000240000002400010023000000F6
:101A600023000000230000002300000023000000EA
:101A700023000000230001002200000022000000DB
:101A800022000000220000002200000022000100CD
:101A900021000000210000002100000021000000C2
:101AA00021000000210000002100010020000000B2
:101AB00020000000200000002000000020000000A6
:101AC0002000000020000000200001001F00000096
:101AD0001F0000001F0000001F0000001F0000008A
:101AE0001F0000001F0001001E0000001E0000007B
:101AF0001E0000001E000000043700001E29000028
:101B0000511B00005810000010090000CC04000018
:101B1000780200004101000020204E6F7A7A6C6547
:101B20003A2000200068656174206E6F7A7A6C65D7
:101B30002E00507265737320627574746F6E20741A
:101B40006F0020204E6F7A7A6C653A2000746F2007
:101B5000636F6E74696E75652E2E2E00616E642043
:101B6000707265737320627574746F6E00496E7362
:101B70006572742066696C616D656E740020204E1C
:101B80006F7A7A6C653A2000200066696C616D6539
:101B90006E74206C6F6164005761697420666F72A7
:101BA0000020204E6F7A7A6C653A2000200066692A
:101BB0006C616D656E742070757267650057616940
:101BC0007420666F7200746F20726573756D6500A6
:101BD0005761697420666F72207072696E7400427A
:101BE000696C696E656172204C6576656C696E67BB
:101BF00020477269643A0A0047322F4733206261F6
:101C00006420706172616D65746572730A002028CA
:101C100044525952554E2900473239204175746F4C
:101C200020426564204C6576656C696E67003F20D4
:101C3000284C2C522C462C4229206F7574206F663C
:101C400020626F756E64732E0A003F2856296572F4
:101C5000626F7365206C6576656C20697320696DB1
:101C6000706C61757369626C652028302D34292E83
:101C70000A00426164205A2076616C75650A004E44
:101C80006F2062696C696E65617220677269640AAF
:101C9000004D3630303A20546F6F20636F6C640013
:101CA000486F74656E6420746F6F20636F6C640A94
:101CB000004D343820526573756C743A20257300DA
:101CC0005374616E646172642044657669617469FD
:101CD0006F6E3A20002052616E67653A2000204DF9
:101CE00061783A2000204D696E3A20004D65616EA2
:101CF0003A200046696E6973686564210A002072A3
:101D0000616E67653A2000206D61783A2000206D91
:101D1000696E3A2000207369676D613A2000206D7A
:101D200065616E3A20003A207A3A2000206F6620E2
:101D300000506F736974696F6E696E6720746865AF
:101D40002070726F62652E2E2E0A003F2028582CBC
:101D50005929206F7574206F6620626F756E6473E9
:101D60002E0A003F53616D706C652073697A65209F
:101D70006E6F7420706C61757369626C65202834B5
:101D80002D3530292E0A004D3438205465737420C7
:101D900052756E6E696E672E2E2E0A003F285629E8
:101DA0006572626F7365206C6576656C2065727212
:101DB0006F722028302D34292E0A0020573A004512
:101DC00020436F6F6C696E672E2E2E00452048658C
:101DD0006174696E672E2E2E0020573A00426564AA
:101DE00020636F6F6C696E672E2E2E004265642033
:101DF00068656174696E672E2E2E00205A3A0020A5
:101E0000593A0020436F756E7420583A0020453AC5
:101E100000205A3A0020593A00583A00436D643A7B
:101E20002053572D4D6F646500436D643A20537401
:101E30006F7700436D643A204465706C6F7900439E
:101E40006D643A2053656C662D5465737400436D60
:101E5000643A205265736574004D61696E004D31BE
:101E60003235004D3234005072696E742061626FF9
:101E70007274656400496E69742E20534420636156
:101E80007264004D3231004E6F2053442063617202
:101E900064004368616E6765205344206361726427
:101EA000004D3231005072696E742066726F6D2081
:101EB00053440053746F70207072696E74005265E1
:101EC00073756D65207072696E740041626F757410
:101ED000205072696E746572005061757365207070
:101EE00072696E7400436F6E74726F6C005072652D
:101EF000706172650054756E6500496E666F20737F
:101F0000637265656E000E000E000E000E000E007E
:101F10000E000E000E007FC03F801F000E00040068
:101F200004000E001F003F807FC00E000E000E0058
:101F30000E000E000E000E000E0003F8000FFE0053
:101F40001E0F00380700380380700380700FE070A8
:101F500007C070038070010070000038000038076F
:101F6000001E0F000FFE0003F80000FE0003FF80BC
:101F70000783C00E01C00E00E01C00E07F00E03EC1
:101F800000E01C00E00800E00000E00001C00E01DD
:101F9000C00F078007FF0001FC00FFFFFF7F80FFED
:101FA000C0FFC0FFC07F807F80FFC0FFC0FFC03F79
:101FB000001E000C0050726F6265205A204F66664A
:101FC000736574004368616E67652066696C616D56
:101FD000656E74004368616E67652066696C616D4B
:101FE000656E74004D3630302042300050726F62A2
:101FF00065205A204F666673657400466C6F7700E3
:10200000466C6F7700466C6F770046616E20737088
:102010006565640046616E207370656564004661A5
:102020006E207370656564004265640042656400FB
:10203000426564004E6F7A7A6C65004E6F7A7A6CF6
:1020400065004E6F7A7A6C65005370656564005365
:1020500070656564005370656564004D61696E006C
:102060005072656865617420504C4120456E640073
:102070005072656865617420504C4120426564006F
:102080005072656865617420504C410050726570F3
:102090006172650043616E6E6F7420656E74657267
:1020A000207375626469723A2000022E2E0001527C
:1020B000656672657368004D61696E004D617820D8
:1020C00054656D703A20313230004D696E20546590
:1020D0006D703A203500544265643A4154432031D2
:1020E000303447542D32004D61782054656D703A7C
:1020F00020323930004D696E2054656D703A2035BC
:102100000054303A204550434F53203130304B007B
:102110005053553A2047656E657269630050726F7F
:10212000746F636F6C3A20312E3000426175643AEF
:10213000203131353230300043522D31305300429E
:10214000696C696E656172204C6576656C696E6755
:10215000004578747275646572733A203100544892
:10216000334453747564696F2E636F6D0054483344
:102170004420424C546F7563680000544833442037
:1021800055312E52322E3137004D61726C696E001E
:10219000546865726D6973746F727300426F617217
:1021A0006420496E666F005072696E7465722049D2
:1021B0006E666F004D61696E004D373032205425D8
:1021C00064004D36303020423020542564004D37B5
:1021D0003032203B2564004D3730312054256400D7
:1021E0004368616E67652066696C616D656E740039
:1021F0005072656865617420414253005072656891
:1022000065617420504C41004368616E67652066CB
:10221000696C616D656E74005052494E5420504196
:102220005553454400554E4C4F41442046494C417E
:102230004D454E54004C4F41442046494C414D457C
:102240004E54005075726765206D6F726500436F64
:102250006E74696E756500524553554D45204F505B
:1022600054494F4E533A0020204E6F7A7A6C653AAB
:1022700020006368616E6765006F66207468652082
:1022800066696C616D656E74005761697420666F74
:10229000722073746172740020204E6F7A7A6C65BC
:1022A0003A2000200066696C616D656E7420756E61
:1022B0006C6F6164005761697420666F7200202042
:1022C0004E6F7A7A6C653A20002000506C6561731D
:1022D0006520776169742E2E2E0048656174696EE1
:1022E00067206E6F7A7A6C6500627573793A207038
:1022F000617573656420666F7220696E7075740A0B
:1023000000627573793A2070617573656420666F39
:102310007220757365720A00627573793A20707263
:102320006F63657373696E670A004B494C4C454493
:102330002E20004B494C4C2063617573656420620C
:1023400079204B494C4C20627574746F6E2F706904
:102350006E0A004B494C4C45442E20004B494C4CD6
:102360002063617573656420627920746F6F206DDE
:1023700075636820696E6163746976652074696D40
:1023800065202D2063757272656E7420636F6D6DAC
:10239000616E643A20004D36303000506C656173D8
:1023A00065207265736574005052494E5445522041
:1023B00048414C544544005072696E7465722068FF
:1023C000616C7465642E206B696C6C2829206361D4
:1023D0006C6C6564210A0000000000000000000031
:1023E00000000000002042000020420000004100E8
:1023F0000000005761726E696E673A20486F6D6920
:102400006E672042756D702044697669736F722023
:102410003C20310A000202040000A0400000A0405D
:10242000000000400000FA430000FA430000FA43B5
:10243000FFFFFF4D33310053442072656164206516
:1024400072726F720A00446F6E65207072696E74EA
:10245000696E672066696C650A004B494C4C4544BF
:102460002E200053544F505045442E200050726986
:102470006E7465722073746F707065642064756526
:1024800020746F206572726F72732E2046697820F7
:10249000746865206572726F7220616E6420757356
:1024A00065204D39393920746F20726573746172FB
:1024B000742E202854656D70657261747572652084
:1024C00069732072657365742E2053657420697476
:1024D0002061667465722072657374617274696ECE
:1024E00067290A004E6F20436865636B73756D2022
:1024F00077697468206C696E65206E756D626572AF
:102500002C204C617374204C696E653A20004E6F2C
:1025100020436865636B73756D2077697468206C00
:10252000696E65206E756D6265722C204C617374E6
:10253000204C696E653A2000636865636B73756D46
:10254000206D69736D617463682C204C6173742015
:102550004C696E653A20004C696E65204E756D625F
:102560006572206973206E6F74204C617374204C07
:10257000696E65204E756D6265722B312C204C6141
:102580007374204C696E653A20004D31313000255E
:10259000753A2530327500253032753A253032755E
:1025A0000025756420253032753A25303275005A81
:1025B0000059005800092000000000000000000041
:1025C000000000003FFFF0000000000000000000DD
:1025D0000000003800700000000000000000000053
:1025E000000030FC3000000000000000000000008F
:1025F0000020FC10000000000000000000000000AF
:102600002078100000000000000000000000002002
:1026100030100000000000000000000000002C004E
:10262000D03FC0000000000000002082002E31D00A
:102630007FE0000000000000001041002F7BD07FF1
:10264000E0000000000000001041002F7BD07FE080
:10265000000000000000002082002E31D03FC000AA
:102660000000000000004104002C00D03FC000002A
:1026700000000000008208002030107FE000000011
:10268000000000008208002078107FE000000000B9
:1026900000000041040020FC107FE000000000006A
:1026A000000020820030FC301F800000000000008D
:1026B000000000003800700F000000000000000063
:1026C000FFFFC03FFFF0060000000000000000FF19
:1026D000FFC000000000000000000000000000003B
:1026E000003FFFF0000000000000000000000000BC
:1026F0003800700000000000000000000000003101
:102700008630000000000000000000000000238769
:10271000100000000000000000000000002787906B
:102720000000000000000000000000002F87D00023
:1027300000000000000000000000002F03D03FC098
:10274000000000000000002082002030107FE00028
:102750000000000000001041002078107FE0000021
:1027600000000000001041002078107FE000000011
:10277000000000002082002030103FC00000000058
:102780000000004104002F03D03FC0000000000003
:1027900000008208002F87D07FE0000000000000CA
:1027A000008208002787907FE00000000000000002
:1027B0004104002387107FE000000000000000209B
:1027C00082003186301F8000000000000000000001
:1027D000003800700F0000000000000000FFFFC084
:1027E0003FFFF0060000000000000000FFFFC000F7
:1027F00000005448334420424C546F7563682052A3
:10280000656164792E005072696E74696E672E2E50
:102810002E005072696E7420706175736564004D8E
:102820003130362050256920532569004D3130392B
:1028300020532569004D31393020532569004D342E
:1028400032302053300A4732382052302058205935
:102850000053746F70207072696E740052657375E6
:102860006D65207072696E7400506F7765722D4CC3
:102870006F7373205265636F766572790020746F91
:102880006F206C6F6E6720657874727573696F6EF8
:102890002070726576656E7465640A0020636F6CE3
:1028A0006420657874727573696F6E2070726576D6
:1028B000656E7465640A00507265686561742041D4
:1028C000425320456E640050726568656174204112
:1028D000425320426564005072656865617420410E
:1028E00042530050726570617265004D3432380099
:1028F0004D323830205030205331363000436D6433
:102900003A2053656C662D54657374004D3238302F
:102910002050302053313230005072656865617448
:1029200020414253005072656865617420504C41EB
:1029300000436F6F6C646F776E00436D643A205292
:1029400065736574004368616E67652066696C61D4
:102950006D656E74004368616E67652066696C61C1
:102960006D656E74004D363030204230004469731E
:1029700061626C65207374657070657273004D38A8
:10298000340053657420686F6D65206F66667365EB
:102990007473004F6666004F6E2000426564204CE1
:1029A0006576656C696E67004C6576656C2062655E
:1029B00064004732380A4732390052756E204D3470
:1029C000382054657374004732380A4D343820502B
:1029D000313000486F6D65205A00473238205A0068
:1029E000486F6D65205900473238205900486F6D97
:1029F000652058004732382058004175746F2068B0
:102A00006F6D6500473238004D6F766520617869DB
:102A100073004D61696E004D6F76652058004D6FF3
:102A200076652059004D6F7665205A00457874729E
:102A300075646572004D6F766520302E316D6D00C6
:102A40004D6F766520316D6D004D6F7665203130AC
:102A50006D6D004D6F7665206178697300457874FF
:102A60007275646572004D6F7665205A004D6F7601
:102A7000652059004D6F76652058003A004361701B
:102A80003A00205A00205900580020204D61783A21
:102A90002000205A00205900580020204D696E3A2D
:102AA00020004F6E20004F666600536F66742065ED
:102AB0006E6473746F70733A200020643A0020696A
:102AC0003A0020703A00496E76616C69642065783E
:102AD0007472756465720A0023646566696E6520A8
:102AE00044454641554C545F4B6420002364656661
:102AF000696E652044454641554C545F4B69200042
:102B000023646566696E652044454641554C545FB3
:102B10004B702000504944204175746F74756E6588
:102B20002066696E6973686564212050757420742D
:102B30006865206C617374204B702C204B69206198
:102B40006E64204B6420636F6E7374616E747320C7
:102B500066726F6D2062656C6F7720696E746F208E
:102B6000436F6E66696775726174696F6E2E680A6D
:102B700000504944204175746F74756E652066611C
:102B8000696C6564212074696D656F75740A004510
:102B90003120544845524D414C2052554E415741E9
:102BA0005900546865726D616C2052756E61776171
:102BB000790045312048656174696E6720666169F6
:102BC0006C65640048656174696E67206661696C54
:102BD000656400504944204175746F74756E6520BA
:102BE0006661696C6564212054656D7065726174FD
:102BF00075726520746F6F20686967680A00204BE2
:102C0000643A2000204B693A2000204B703A2000A3
:102C10000A20436C617373696320504944200A00A1
:102C20002054753A2000204B753A2000206D6178C1
:102C30003A2000206D696E3A200020643A2000207E
:102C4000626961733A2000504944204175746F7481
:102C5000756E65206661696C6564212054656D70D0
:102C60006572617475726520746F6F20686967683A
:102C70000A00504944204175746F74756E65207365
:102C8000746172740A00504944204175746F747500
:102C90006E65206661696C6564212042616420650F
:102CA00078747275646572206E756D6265720A0063
:102CB000426564204C6576656C696E6720004661EC
:102CC000696C656420746F20656E61626C6520427A
:102CD0006564204C6576656C696E670A004F6666B0
:102CE00073657473206170706C69656400457272FD
:102CF0003A20546F6F206661722100546F6F206616
:102D000061722066726F6D207265666572656E63B2
:102D10006520706F696E740A00496E736572742065
:102D200066696C616D656E7420616E642070726599
:102D3000737320627574746F6E0A005072657373DA
:102D400020627574746F6E20746F206865617420E2
:102D50006E6F7A7A6C650A00496E736572742066CC
:102D6000696C616D656E7420616E6420707265734C
:102D70007320627574746F6E20286F72204D31302D
:102D800038290A00454550524F4D206461746173E3
:102D9000697A65206572726F722E0A00290A002016
:102DA00062797465733B20637263200053657474A9
:102DB000696E67732053746F726564202800290A56
:102DC000002062797465733B206372632000207376
:102DD000746F7265642073657474696E67732072B2
:102DE0006574726965766564202800202863616CCB
:102DF00063756C6174656429210A0020213D2000FF
:102E0000454550524F4D20435243206D69736D61CB
:102E1000746368202D202873746F72656429200004
:102E20002053697A653A2000496E6465783A20003B
:102E3000204D61726C696E3D563536290A00284571
:102E40004550524F4D3D00454550524F4D207665FF
:102E50007273696F6E206D69736D617463682000B1
:102E6000416D6178204500416D6178204500416DDC
:102E70006178205A00416D6178205A00416D617877
:102E8000205900416D6178205900416D61782058CA
:102E900000416D6178205800412D74726176656C37
:102EA00000412D74726176656C00412D72657472FB
:102EB00061637400412D72657472616374004163D3
:102EC00063656C00416363656C004D6F74696F6E80
:102ED0000056652D6A65726B0056652D6A65726BCA
:102EE0000056652D6A65726B00567A2D6A65726BA5
:102EF00000567A2D6A65726B0056792D6A65726B81
:102F00000056792D6A65726B0056792D6A65726B71
:102F10000056782D6A65726B0056782D6A65726B63
:102F20000056782D6A65726B004D6F74696F6E0084
:102F30004573746570732F6D6D00457374657073A0
:102F40002F6D6D005A73746570732F6D6D005A7319
:102F5000746570732F6D6D005973746570732F6D88
:102F60006D005973746570732F6D6D0058737465BF
:102F700070732F6D6D005873746570732F6D6D00D5
:102F80004D6F74696F6E0053746570732F6D6D00B3
:102F90004A65726B00416363656C65726174696F49
:102FA0006E0056656C6F636974790050726F62656C
:102FB000205A204F666673657400436F6E74726F9B
:102FC0006C004C6F6164206D6D004C6F6164206D0E
:102FD0006D004C6F6164206D6D00556E6C6F6164A7
:102FE000206D6D00556E6C6F6164206D6D00556EC7
:102FF0006C6F6164206D6D00436F6E74726F6C0056
:103000004D3234004D323320257300556E6B6E6F98
:10301000776E20636F6D6D616E643A202200496E99
:10302000736572742066696C616D656E7420616E83
:103030006420707265737320627574746F6E2028DB
:103040006F72204D313038290A00486F74656E6404
:1030500020746F6F20636F6C640A0050726F626936
:103060006E67206661696C65640A0050726F626900
:103070006E67206661696C656400205A3A20002002
:10308000593A200042656420583A20005344206396
:10309000617264206F6B0A006F70656E526F6F749F
:1030A000206661696C65640A00766F6C756D652ECB
:1030B000696E6974206661696C65640A0053442016
:1030C000696E6974206661696C0A007C3C3E5E2B07
:1030D0003D3F2F5B5D3B2C2A225C0000060900FE71
:1030E000000000000001090008FE000005080806B5
:1030F000000040F0C888889878100508080600008D
:10310000C0F88888888888F8050505060001203001
:10311000F830200508080600002070F82020202044
:10312000E00509090600FF2070A8A8B8888870206B
:103130000509090600FFE080C0B0A828302828054E
:1031400009090600FFF8A88888888888A8F8050A71
:103150000A0600FE205050505088A8A8887003032B
:103160000306000340A040486F6D6520257325735A
:103170002573206669727374002066697273740A1D
:10318000005A0059005800486F6D65200057726959
:1031900074696E6720746F2066696C653A20006FF1
:1031A00070656E206661696C65642C2046696C658B
:1031B0003A20006F70656E206661696C65642C2032
:1031C00046696C653A200046696C652073656C65DC
:1031D000637465640A002053697A653A2000466981
:1031E0006C65206F70656E65643A20002066696CBE
:1031F000653A2000646F696E6700667265736800E7
:103200004E6F772000454E4420535542524F55543F
:10321000494E450A002220706F73002220706172AF
:10322000656E743A2200535542524F5554494E45EB
:103230002043414C4C207461726765743A22004B04
:10324000494C4C45442E2000747279696E67207495
:103250006F2063616C6C207375622D67636F6465AA
:103260002066696C6573207769746820746F6F20BD
:103270006D616E79206C6576656C732E204D4158BA
:10328000206C6576656C2069733A0046696C652030
:1032900064656C657465643A0044656C6574696F57
:1032A0006E206661696C65642C2046696C653A2005
:1032B000006F70656E206661696C65642C204669DC
:1032C0006C653A200000060900FE070192032120E8
:1032D0007FFF07FF07FF0000000600000107070649
:1032E000020080808080800080030202060105A029
:1032F000A00507070600005050F850F85050050789
:10330000070600002078A07028F0200507070600B7
:1033100000C0C810204098180507070600006090FC
:10332000A040A89068020303060104C04080030780
:103330000706010020408080804020030707060127
:10334000008040202020408005050506000120A8BF
:1033500070A8200505050600012020F820200203A2
:10336000030602FFC04080050101060003F80202C7
:1033700002060200C0C00505050600010810204035
:103380008005070706000070888888888870030712
:103390000706010040C040404040E0050707060026
:1033A00000708808708080F8050707060000F81094
:1033B00020100808F005070706000010305090F8AC
:1033C0001010050707060000F880F008088870054F
:1033D0000707060000708080F088887005070706E0
:1033E0000000F808102020202005070706000070C4
:1033F00088887088887005070706000070888878BC
:10340000080870020505060200C0C000C0C0020620
:10341000060602FFC0C000C0408004070706000087
:1034200010204080402010050303060002F800F839
:103430000407070601008040201020408005070790
:10344000060000708808102000200507070600000D
:1034500070880868A8A870050707060000708888AB
:10346000F8888888050707060000F08888F08888B3
:10347000F0050707060000708880808088700507C7
:1034800007060000F08888888888F005070706008E
:1034900000F88080F08080F8050707060000F880BB
:1034A00080F0808080050707060000708880B8885B
:1034B0008870050707060000888888F888888801D2
:1034C000070706020080808080808080050707064D
:1034D00000003810101010906005070706000088E3
:1034E00090A0C0A09088050707060000808080801B
:1034F0008080F805070706000088D8A88888888893
:103500000507070600008888C8A898888805070767
:103510000600007088888888887005070706000004
:10352000F08888F080808005070706000070888892
:1035300088A89068050707060000F08888F0A0902A
:1035400088050707060000788080700808F00507E6
:1035500007060000F820202020202005070706008D
:103560000088888888888870050707060000888892
:103570008888885020050707060000888888888882
:10358000A850050707060000888850205088880545
:1035900007070600008888885020202005070706B6
:1035A0000000F80810204080F8030707060100E03B
:1035B0008080808080E005050506000180402010A5
:1035C00008030707060100E02020202020E0050373
:1035D00003060004205088050101060000F80202DD
:1035E000020602058040050505060000700878887F
:1035F000780507070600008080B0C88888F00505B8
:103600000506000070808088700507070600000826
:103610000868988888780505050600007088F88095
:10362000700507070600003048E0404040400506AE
:10363000060600FF708888780870050707060000F6
:103640008080B0C888888801070706020080008053
:10365000808080800308080601FF200020202020B1
:10366000A040040707060000808090A0C0A090033F
:103670000707060100C04040404040E00505050640
:103680000000D0A8A8A8A8050505060000B0C888B5
:10369000888805050506000070888888700506067C
:1036A0000600FFF08888F080800506060600FF7897
:1036B0008888780808050505060000B0C880808065
:1036C00005050506000070807008F0040707060075
:1036D000004040E040404030050505060000888875
:1036E000889868050505060000888888502005052B
:1036F000050600008888A8A8500505050600008872
:10370000502050880506060600FF888888780870D3
:10371000050505060000F8102040F803070706011C
:1037200000204040804040200107070602008080C2
:103730008080808080030707060100804040204091
:1037400040800502020600026890000000060000AA
:103750000243616E6E6F74206F70656E20737562C8
:1037600064697220006563686F3A004572726F7217
:103770003A00453120544845524D414C2052554E57
:10378000415741590042454420544845524D414C0F
:103790002052554E4157415900546865726D616C15
:1037A0002052756E617761790048617264636F645D
:1037B00065642044656661756C7420536574746932
:1037C0006E6773204C6F616465640A00F401000049
:1037D000F401000064000000881300000000FA43B8
:1037E0000000FA4300007041000048420000A0427F
:1037F0000000A0420000C8430000BE423A0A002078
:10380000286D6D290020204D3630332000205500D2
:103810004C0046696C616D656E74206C6F61642F3D
:10382000756E6C6F6164206C656E677468733A0ABC
:103830000020204D383531205A005A2D50726F62C9
:1038400065204F666673657400204400204900209F
:10385000204D33303120500050494420736574743A
:10386000696E67733A0A0020460020420020480033
:1038700020204D3134352053004D617465726961EB
:103880006C2068656174757020706172616D65741B
:103890006572733A0A00205A00204A0020204732FD
:1038A00039205720490020204D3432302053004128
:1038B00075746F20426564204C6576656C696E672F
:1038C0003A0A00205A0020590020204D323036207C
:1038D0005800486F6D65206F66667365743A0A001C
:1038E000204500205A002059002058002054002074
:1038F000530020204D32303520510020453C6D6171
:10390000785F655F6A65726B3E0020583C6D617838
:103910005F785F6A65726B3E20593C6D61785F79B4
:103920005F6A65726B3E205A3C6D61785F7A5F6AB0
:1039300065726B3E00416476616E6365643A205146
:103940003C6D696E5F7365676D656E745F74696DFC
:10395000655F75733E20533C6D696E5F6665656497
:10396000726174653E20543C6D696E5F747261765D
:10397000656C5F66656564726174653E0020540025
:1039800020520020204D32303420500041636365C6
:103990006C65726174696F6E2028756E6974732F1F
:1039A0007332293A20503C7072696E745F616363B0
:1039B000656C3E20523C726574726163745F616332
:1039C00063656C3E20543C74726176656C5F616324
:1039D00063656C3E0A00204500205A0020590020F3
:1039E000204D3230312058004D6178696D756D2061
:1039F000416363656C65726174696F6E2028756ED2
:103A00006974732F7332293A0A00204500205A0046
:103A100020590020204D3230332058004D61786904
:103A20006D756D20666565647261746573202875B7
:103A30006E6974732F73293A0A00204500205A00DA
:103A400020590020204D393220580053746570737E
:103A50002070657220756E69743A0A0020204D311D
:103A600034392043203B20556E69747320696E20E1
:103A700043656C736975730A00202047323120203A
:103A800020203B00526573656E643A20006F6B0026
:103A900020746F6F206C6F6E672065787472757319
:103AA000696F6E2070726576656E7465640A0020B9
:103AB000636F6C6420657874727573696F6E2070C3
:103AC000726576656E7465640A006F70656E206657
:103AD00061696C65642C2046696C653A200045720A
:103AE000726F722077726974696E6720746F2045F7
:103AF0004550524F4D210A000000210024002700AC
:103B00002A002D00300033000101000004010701EC
:103B10000A0100002200250028002B002E003100A1
:103B2000340002010000050108010B010000200023
:103B30002300260029002C002F0032000001000085
:103B40000301060109010505050507050808080820
:103B5000020202020A0A0808040404040101010125
:103B60000101010103030303030303030407070720
:103B70000C0C0C0C0C0C0C0C0202020206060606C5
:103B8000060606060B0B0B0B0B0B0B0B0102102092
:103B90002008081020401020408002010201080483
:103BA0000201010204081020408080402010080417
:103BB0000201800402018040201008040201080470
:103BC00002010102040810204080010204081020B4
:103BD000408000000A0B02090C0D0E0807030401C7
:103BE00000000000000000000000000000000000D5
:103BF00000000000000000000000000000001211A2
:103C000010000000000000000000000000000000A4
:103C10000000000000000000486F6D696E672066BC
:103C200061696C65640054524947474552454400F8
:103C30006F70656E003A200066696C616D656E7428
:103C4000007A5F6D696E00795F6D696E00785F6DF7
:103C5000696E005265706F7274696E6720656E647C
:103C600073746F70207374617475730A00001801A7
:103C7000000111241FBECFEFD1E2DEBFCDBF00E0B7
:103C80000CBF13E0A0E0B2E0E4E8F7E502E00BBF10
:103C900002C007900D92AA38B107D9F72CE1AAE823
:103CA000B3E001C01D92AA3BB207E1F71EE1C8E3F1
:103CB000DEE100E006C021970109802FFE010F948C
:103CC0001F2BC733D10780E00807A9F70F94750EA3
:103CD0000D94B12B0C9400002F923F924F925F9263
:103CE0006F927F928F929F92AF92BF92CF92DF920C
:103CF000EF92FF920F931F93CF93DF93CDB7DEB771
:103D0000E4970FB6F894DEBF0FBECDBF91E090935D
:103D10006B118091BB1B8D3409F40EC3843511F4F3
:103D20000C943B30873411F00C9487302091B91BF0
:103D30003091BA1B2C31310509F4A7C08CF4243022
:103D4000310534F42230310584F537FF27C0F0C245
:103D50002430310599F12B31310509F46EC0E8C2E8
:103D60002A32310509F48AC14CF42D31310509F4A8
:103D7000A8C02E31310509F4A8C0DAC22B353105AF
:103D800009F454C22C35310509F454C22A353105E1
:103D900009F0CEC210928E030C94893080910802F3
:103DA00081110C948E300C94893081E022303105E1
:103DB00009F080E00E942D650C94893080E50E9416
:103DC000E83B882329F00E942C3B6B017C0103C057
:103DD000C12CD12C760183E50E94E83B882361F059
:103DE0000E946C3B20E030E04AE754E40F94EA2163
:103DF0000F9468296B017C010F94300A8091C914DB
:103E0000811105C060E08FE993E00E94D4EE0F9429
:103E10001D09C60ED71EE81EF91E0F941D09DC01F0
:103E2000CB018C199D09AE09BF09B7FD02C00C94E6
:103E3000893080E00E940C8FF0CF0E9446E1811112
:103E40000C94893080E090E0A0E2B1E489839A8309
:103E5000AB83BC838D839E83AF83B88789879A8722
:103E6000AB87BC8780E50E94E83B882319F00E945D
:103E70003C3B01C060E068A3BE016F5F7F4FCE0195
:103E800080960F94030D0C94893080919B1187705C
:103E9000873011F00C9493308FE40E94E83B882324
:103EA00041F00E945D3B882311F40C9493300C94F4
:103EB00089308FE40E949F3B81110C9489300C94CF
:103EC00093300E94C16C0C948930C090AC11D0909A
:103ED000AD11E090AE11F090AF1188E50E94E83B83
:103EE000811109C020E030E040E352E4C701B6018F
:103EF0000F941E2802C00E946C3B68A379A38AA37A
:103F00009BA3C090B011D090B111E090B211F0908D
:103F1000B31189E50E94E83B811109C020E030E03F
:103F200040E251E4C701B6010F941E2802C00E946E
:103F30006C3B9B01AC0169837A838B839C8368A172
:103F400079A18AA19BA10E943A8B882311F40C9439
:103F5000893080E00E948A3A0E94E73785E40E9417
:103F6000E83B882321F00E945D3B182F04C085E4C4
:103F70000E949F3B11E086E50E94E83B882321F0E8
:103F80000E943C3B262F01C021E0412FBE016F5F04
:103F90007F4FCE0180960E9469CE6B017C019B0110
:103FA000AC010F94CD2A81115FC088A099A0AAA06E
:103FB000BBA020E030E0A901C501B4010F94852128
:103FC00087FF05C027E137EB41E558EB04C027E147
:103FD00037EB41E558E3C501B4010F941F28AB014D
:103FE000BC018FEC93E00E949C5A89809A80AB8040
:103FF000BC8020E030E0A901C501B4010F94852107
:1040000087FF05C027E137EB41E558EB04C027E106
:1040100037EB41E558E3C501B4010F941F28AB010C
:10402000BC018AEC93E00E949C5A20E030E0A90198
:10403000C701B6010F94852187FF05C027E137EB43
:1040400041E558EB04C027E137EB41E558E3C701F0
:10405000B6010F941F28AB01BC0185EC93E00E94D0
:104060009C5A8AE00E940E3C0E94CE37113011F417
:104070000E9461640E943C710C9489308091080216
:10408000882311F40C94893089E40E94E83B082FBE
:10409000882321F00E943C3BE62E01C0E12C8AE4FB
:1040A0000E94E83B182F882321F00E943C3BF62E0B
:1040B00001C0F12C002319F092E09E1528F0112385
:1040C00089F0A2E0AF1570F4E7EDF3E084918F0181
:1040D0000F5F1F4F882311F40C9489300E940E3C0F
:1040E000F801F4CF0E94FA3B0023F1F02091151162
:1040F000309116114E2D4203B001439F700D1124D3
:1041000080912B1190912C11680F791F072E000CB4
:10411000880B990B0F948B2160936E1170936F1124
:1041200080937011909371111123F1F02091171168
:10413000309118114F2D4203B001439F700D11248F
:1041400080912D1190912E11680F791F072E000C70
:10415000880B990B0F948B216093721170937311DC
:10416000809374119093751180E50E94E83B882339
:10417000E9F00E945D3B8823A9F10023D9F020E0FB
:1041800030E040E352E460916E1170916F118091C4
:104190007011909171110F941F2860936E1170939C
:1041A0006F11809370119093711104C080E50E948B
:1041B0009F3BE1CF1123B1F020E030E040E251E439
:1041C00060917211709173118091741190917511B9
:1041D0000F941F2860937211709373118093741160
:1041E0009093751186E40E94E83B8823D9F00E94E1
:1041F0006C3B6B017C0120E030E0A9010F94452A63
:10420000181684F420E030E040E752E4C701B6011C
:104210000F94FB28609345027093460280934702F7
:10422000909348020E9481F90C94893090938E03F8
:104230000C94893030E6232E32E0332E4DE3E42E09
:1042400040E1F42E8CEA91E199A788A75CE9C52E9C
:1042500051E1D52E00E010E0D1018D911D010E94A9
:10426000E83B882309F44BC00E946C3B2B013C01C6
:10427000133049F0F60120813181428153810F943E
:104280001E282B013C01A8A5B9A52D913D914D916A
:104290005C91C301B2010F941E284B015C012DEB10
:1042A00037E346E855EB0F94452A87FD0AC02DEB0E
:1042B00037E346E855E3C501B4010F94852118168C
:1042C000F4F4133051F44092B8115092B911609245
:1042D000BA117092BB1101E012C0A5019401F7015F
:1042E00060817181828193810F941F28D7016D9322
:1042F0007D938D939C931397812F0E94D2391F5FDA
:10430000B4E0EB0EF11CE8A5F9A53496F9A7E8A7EF
:10431000F4E0CF0ED11C143009F09ECF002321F021
:1043200088EB91E10E945DE00E943C710C94893021
:104330000E9415D30C9489308091B91B9091BA1BBF
:104340008737910511F40C94812A0CF0DCC08C3471
:10435000910509F41FC50CF058C08931910509F485
:1043600069C31CF58431910509F4E1C17CF4813104
:10437000910509F457C22CF4029708F4DBC10C94A0
:104380003830429709F403C70C94383086319105D0
:1043900009F499C20CF493C28731910509F499C2CA
:1043A000489709F4AEC20C9438308E31910509F467
:1043B000FFC384F48B31910509F458C30CF448C34E
:1043C0008C31910509F4EAC34D9711F40C948930AE
:1043D0000C9438308033910509F4CBC44CF48F3100
:1043E000910509F410C4809709F4E5C20C943830A3
:1043F0008934910509F4C1C48B34910511F00C94F2
:1044000038300E9477510C9489308B36910509F42D
:1044100017C60CF043C08435910509F4B8C6E4F41E
:104420008135910509F49CC64CF48D34910511F049
:104430000C9438300E94AE510C948930823591052D
:1044400009F4A2C68335910511F00C94383081E04F
:1044500080938D030C9489308836910509F49EC4AD
:104460009CF48535910509F4C5C68C35910511F08C
:104470000C94383010E6C12E12E0D12E0DE1E02E62
:1044800005E1F02E10E0CFC68936910509F452C53A
:104490008A36910509F4B6C50C94383080379105F9
:1044A00009F413C584F48D36910509F485C50CF41F
:1044B00008C58E36910509F49EC48F36910509F41E
:1044C000ADC40C9438308337910509F42DC154F4F0
:1044D0008137910509F401C58237910509F422C796
:1044E0000C9438308537910509F4B6C786379105A5
:1044F00011F00C9438300091B71B1091B81B83E079
:10450000D12C40E0BEC78E3221E0920711F40C940A
:10451000EB2D0CF074C08C3C910511F40C943E2BE7
:1045200094F58139910509F4FAC784F48937910526
:1045300009F4F0C70CF4E8C78D37910509F492C56A
:104540008C38910509F43CC50C9438308E3B9105AC
:1045500009F454C534F48B39910509F406C50C945B
:104560003830893C910511F40C94072B8B3C910554
:1045700011F00C94383060E6E62E62E0F62E01E58C
:104580001AE00C942E2B8D3D910511F40C94682C9F
:10459000A4F48E3C910511F40C94322C14F40C9478
:1045A000B32B833D910511F40C94582C8C3D91054F
:1045B00011F40C945B2C0C9438308232A1E09A07F1
:1045C00011F40C94B72D64F4823E910511F40C940F
:1045D000CB2C8831914011F40C940C2D0C94383074
:1045E0008C32F1E09F0711F40C94C22D8D32914072
:1045F00011F00C9438300E9412B90C948930853F28
:1046000041E0940711F40C94F32E0CF04CC0823965
:10461000B1E09B0711F40C94582E0CF58336F1E0B1
:104620009F0709F47DC04CF48F32914011F00C9437
:1046300038300E94D7B40C9489308039A1E09A07B1
:1046400011F40C94552E8139914011F00C943830AE
:1046500081E00E9435390E943C710C948930853A82
:10466000E1E09E0711F40C94602E74F48A3921E085
:10467000920709F42EC4843A914011F00C9438301A
:104680000E941CB30C9489308C3AA1E09A0711F473
:104690000C94552C843F914011F00C9438300E94BA
:1046A000C0C00C9489308835E2E09E0711F40C9468
:1046B000322FB4F4873F21E0920711F40C94F92EC5
:1046C00014F40C94F62E883FA1E09A0711F40C9490
:1046D000052F8C30924011F40C94292F0C94383013
:1046E0008B38E3E09E0711F40C9489306CF48B3521
:1046F00022E0920711F40C94352F8335934011F486
:104700000C94BE2F0C943830803AA3E09A0709F439
:104710006DC2873E934011F40C9423300C943830D2
:10472000EBE6F7E30C94422EEBEDF5E03AC6E1E25E
:10473000F4E087C0A090B71BB090B81B80E50E9442
:10474000E83B882359F00E942C3B6B017C0111E06F
:10475000672B682B692B31F410E004C010E0C12CEA
:10476000D12C760183E50E94E83B882311F40C9458
:1047700061320E946C3B20E030E04AE754E40F9441
:10478000EA210F9468296B017C0111110BC0672B82
:10479000682B692B39F4A114B10421F0F501808153
:1047A000811102C010E001C011E00F94300A112302
:1047B00029F061E0C5010E9410EF05C060E086EFBE
:1047C00093E00E94D4EE83E080936B1181E08093AC
:1047D0006A11C114D104E104F104B1F00F941D0970
:1047E000C60ED71EE81EF91E0F941D09DC01CB0171
:1047F0008C199D09AE09BF09B7FF0EC080916A11DF
:1048000081110C94663208C080916A11882321F0CE
:1048100080E00E940C8FF8CF0E94DF9110926A1105
:104820000C94893060E089E094E00E94D4EE5F98B7
:104830008A988091080181708093060112980C94E7
:10484000893084918F010F5F1F4F882321F00E94D0
:104850000E3CF801F6CF1092671B81ED98E10E94A3
:10486000CCD68BE1E1EDF8E1DE01159601900D92D9
:104870008A95E1F78091CF189091D0189C838B8313
:1048800086E193E09A83898340E050E0BE016F5F48
:104890007F4F80E090E00E941FF2CE0101960E94BF
:1048A000BB8BE2E1F4E084918F010F5F1F4F8823FF
:1048B00011F40C9489300E940E3CF801F4CF0E9450
:1048C0000DCD0C9489301092791810927A180C94AE
:1048D00089300E94B5E7E091B71BF091B81B808149
:1048E000882329F0803209F410823196F8CF40E015
:1048F00061E08091B71B9091B81B0E94A9E50C94D0
:10490000893080E090E0A8E4B2E489839A83AB83A5
:10491000BC8318A219A21AA21BA21CA21DA21EA22D
:104920001FA280916617882359F020E0AE014F5FE7
:104930005F4FBE01605E7F4FCE0184960E9494D18E
:1049400083E50E94E83B882381F00E943C3BAB0159
:10495000BC014093631B5093641B6093651B709371
:10496000661B83E99AE10E9485D480917A18882396
:1049700019F081E08093791884E50E94E83B882350
:1049800009F454C00E943C3B6B017C010E943D50E5
:10499000C092690AD0926A0AE0926B0AF0926C0A9D
:1049A000CD28CE28CF2811F40C94893081E0809353
:1049B000BC100C9489308091791881110F94300AC1
:1049C00080917A18882311F40C94893080E50E9434
:1049D000E83B882309F406C10E945D3B182F482F4D
:1049E00061E08091B71B9091B81B0E94A9E583E517
:1049F0000E94E83B882381F00E943C3BAB01BC0154
:104A00004093631B5093641B6093651B7093661BFC
:104A100083E99AE10E9485D480917A18882319F05D
:104A200081E08093791811110C9489300E9477519C
:104A30000C948930109279180E94995182E394E085
:104A400090936211809361110E94473C0C948930CD
:104A500080917A18882311F40C94893083E50E94A0
:104A6000E83B81110C946B320C94893083E40E94F2
:104A70009F3B882309F450C0E4E6F4E084918F0161
:104A80000F5F1F4F882321F00E940E3CF801F6CFE4
:104A90008091961A811103C0E7E3F4E012C0BE01D1
:104AA0006F5F7F4F83E99AE10E9494D58E010F5F7B
:104AB0001F4FD8018D918D01882349F10E940E3C32
:104AC000F8CF84918F010F5F1F4F882301F10E945F
:104AD0000E3CF801F6CF9CEBC92E94E0D92EE12CC8
:104AE000F12C20E08091961190E00E2C02C095955B
:104AF00087950A94E2F780FDC1C14FEFE41AF40AEA
:104B000082E0C80ED11C95E0E916F10459F78AE05D
:104B10000E940E3C0C94893080917A18882339F0D9
:104B200080917918882319F0E1E4F4E003C0E3E50B
:104B3000F4E028C084918F010F5F1F4F882321F07C
:104B40000E940E3CF801F6CF6091631B7091641BCC
:104B50008091651B9091661B4AE00E949F3C8FE20A
:104B60000E940E3C60915F1B7091601B8091611BE5
:104B70009091621B4AE00E949F3C8AE00E940E3C9A
:104B80000C94893084918F010F5F1F4F882311F49B
:104B90000C9489300E940E3CF801F4CF40E060E0B4
:104BA0008091B71B9091B81B0E94A9E50C948930A5
:104BB00080917A18882311F40C94893083E99AE162
:104BC0000F94130583E99AE10E946FD5109278182B
:104BD000109277188091B71B9091B81B0E9424E720
:104BE0000C94893080E50E949F3BF8CE8091B71BE2
:104BF0009091B81B21E02093781840E060E00E947B
:104C0000A9E50C9489300E9409507B018C0120E8B1
:104C100031E541E050E00F94C127C9016DE671E034
:104C20000F94F82A4B015C01C801B70120E13EE076
:104C300040E050E00F94C127CA01B90128E130E0FB
:104C400040E050E00F94C127762E672EC62ED72E57
:104C50002CE3222E312C412C512CC801B701A2018A
:104C600091010F94C127F62EE72ECA01B901A201C6
:104C700091010F94C127CB018E010F5F1F4F81144B
:104C8000910499F0EF92FF927F936F936F927F92CE
:104C9000BF92AF929F928F928BE994E09F938F93F4
:104CA0001F930F930F941F2113C0A114B104B1F0EF
:104CB000EF92FF927F936F936F927F92BF92AF922A
:104CC0008BE894E09F938F931F930F930F941F2172
:104CD0000FB6F894DEBF0FBECDBF30C0CD2879F03F
:104CE000EF92FF927F936F936F927F928FE794E0A2
:104CF0009F938F931F930F930F941F21E9CF892BBD
:104D000069F0EF92FF927F936F9387E794E09F9310
:104D10008F931F930F930F941F21DACFEF92FF927F
:104D200083E794E09F938F931F930F930F941F211A
:104D30000F900F900F900F900F900F9060E0C801B0
:104D40000E9410EFE5E6F7E384917F012FEFE21A6E
:104D5000F20A882321F00E940E3CF701F5CFB8013A
:104D60008FEA94E00E94D25A8AE00E940E3C0C9492
:104D700089300E949C750C9489308091791881113A
:104D80000C94893080E50E949F3B81110C947C3209
:104D90000C9489300E9499510C94893088E690E0F7
:104DA0000E940A3D81110C9489308091961183FFF5
:104DB00002C00C94893083E50E94E83B882311F4FB
:104DC0000C9489300E946C3B0F946329CB010E94A4
:104DD0006FEE0E946C3B20E030E04AEA52E40F9410
:104DE0008521181614F40C9489300E94AE510E944B
:104DF000DF910C9489308EE40E94E83B882311F403
:104E00000C9489300E943C3B60937A1770937B1717
:104E100080937C1790937D170C94893083E50E94D2
:104E20009F3B882359F083E50E94E83B882319F0D3
:104E30000E944C3B01C080E080939611E5E6F7E3C9
:104E400084918F010F5F1F4F811103C0EAECF4E0E2
:104E500004C00E940E3CF801F3CF84918F010F5FD4
:104E60001F4F882321F00E940E3CF801F6CF80915D
:104E70009611811130CEE6ECF4E018C0BB24B39457
:104E8000B20E222319F08CE20E940E3CF6018591AD
:104E90009491FC0184918F010F5F1F4F882321F0B3
:104EA0000E940E3CF801F6CF2B2D27CE84918F0166
:104EB0000F5F1F4F882309F42ACE0E940E3CF80191
:104EC000F5CF10923E020C94893081ED94E00E945F
:104ED000DC8B0E949AB40C94893083E50E94E83BF5
:104EE000811103C0E5E6F7E30DC00E944C3B8D3312
:104EF00020F480931E020C9489308CE380931E0270
:104F00000C94893084918F010F5F1F4F882321F00B
:104F10000E940E3CF801F6CF40911E0250E060E086
:104F200070E08AED94E00E947F5A8AE00E940E3C75
:104F30000C94893089E690E00E940A3D811111C0ED
:104F4000E1EEF4E084918F010F5F1F4F882321F081
:104F50000E940E3CF801F6CF0E9404498AE00E94AC
:104F60000E3C10926B110C945A3383E50E94E83B7F
:104F7000882311F40C9489300E944C3B182F8D33F8
:104F800008F01CE310933C100F941D096B017C0189
:104F9000212F30E0A8EEB3E00F940F28C60ED71EE5
:104FA000E81EF91EC0923810D0923910E0923A10E3
:104FB000F0923B100C9489300E94CE730C9489308F
:104FC0008091961183FF02C00C94893083E50E9482
:104FD000E83B882311F40C9489300E946C3B0F94B9
:104FE00063296337710514F063E770E070939B1CCD
:104FF00060939A1C0E94BE490C9489300E940672EC
:105000000C94893080E50E94E83B811106C083E55D
:105010000E94E83B882361F006C00E944C3B81114E
:105020000C948930F4CF0E943C3B6F3F710510F027
:105030006FEF70E070939D1C60939C1C0C94893002
:1050400080E50E94E83B811106C010929D1C1092E1
:105050009C1C0C9489300E943C3B672B11F00C94F3
:105060008930F3CF8CE40E949F3B882381F00E941B
:105070006C3B6B017C0120E030E0A9010F94452AD4
:1050800087FF0AC0F7FAF094F7F8F09405C0C12C36
:10509000D12CE12C80E4F82EF7FAF094F7F8F09494
:1050A000CCA2DDA2EEA2FFA280E090E0A0E2B1E4FB
:1050B00089839A83AB83BC838D839E83AF83B887B8
:1050C00089879A87AB87BC8788E50E94E83B88235D
:1050D00079F088E50E94E83B882319F00E946C3B38
:1050E00003C060E070E0CB0169837A838B839C838B
:1050F00089E50E94E83B882379F089E50E94E83B36
:10510000882319F00E946C3B03C060E070E0CB0183
:105110006D837E838F8398878AE50E94E83B88238E
:1051200079F08AE50E94E83B882319F00E946C3BE5
:1051300003C060E070E0CB0169877A878B879C872A
:1051400018A219A21AA21BA220E0AE01405E5F4F76
:10515000BE016F5F7F4FCE0184960E94257AD9C72A
:105160000E94874A0F946E0A10929D1C10929C1CFC
:1051700068EE73E080E090E00E9407EE60E084EE6D
:1051800094E00E94D4EEC5C710928D03C2C783E598
:105190000E94E83B882399F00E946C3B20E030E0BD
:1051A0004AE754E40F94EA210F94682960931F02A0
:1051B000709320028093210290932202AAC788E56F
:1051C0000E949F3B81110C94873289E50E949F3B8E
:1051D00081110C9487328AE50E949F3B81110C94C7
:1051E000873285E40E949F3B81110C9487320F9493
:1051F0006E0A8FC783E50E949F3B882309F489C705
:105200000E946C3B20E030E04AE754E40F94EA212E
:105210000F94682960933410709335108093361082
:105220009093371076C7D6018D916D010E949F3BF8
:10523000882309F46DC0133009F063C00E946C3BF1
:105240004B015C0120E030E040EA51E40F948521FD
:1052500087FF4EC0A50194016091291570912A1510
:1052600080912B1590912C150F94FB282B013C015C
:105270009B01AC01609155117091561180915711AD
:10528000909158110F94EA21609355117093561123
:105290008093571190935811A301920160915D0A78
:1052A00070915E0A80915F0A9091600A0F94EA21E2
:1052B00060935D0A70935E0A80935F0A9093600A20
:1052C000609108117091091180910A1190910B1150
:1052D0000F948921A30192010F94EA210F94682968
:1052E000609308117093091180930A1190930B1128
:1052F0008092291590922A15A0922B15B0922C1508
:1053000007C00E946C3BF7016083718382839383A3
:105310001F5FF4E0EF0EF11C143009F084CF0E94FF
:10532000129BF7C60F94300A83E50E94E83B88235E
:1053300011F40C9494210E943C3B6230710511F0F1
:105340000C9494210E943DFD8BE50E940E3C6091DF
:10535000461C7091471C8091481C9091491C42E06A
:105360000E94603D40914A1C50914B1C60914C1C26
:1053700070914D1C89EF94E00E949C5A40914E1C04
:1053800050914F1C6091501C7091511C86EF94E01D
:105390000E949C5A8DE50E940E3C8AE00E940E3CC1
:1053A000B8C684918F010F5F1F4F882321F00E94A0
:1053B0000E3CF801F6CF60E08BEC95E00E9493BACA
:1053C00061E084EC95E00E9493BA60E089EB95E09F
:1053D0000E9493BA61E089EA95E00E9493BA60E086
:1053E00080EA95E00E9493BA61E086E995E00E9428
:1053F00093BA61E08CE895E00E9493BA61E084E89A
:1054000095E00E9493BA61E086E795E00E9493BA26
:1054100061E088E695E00E9493BA60E089E595E056
:105420000E9493BA60E08BE495E00E9493BA60E03A
:1054300085E395E00E9493BA60E084E295E00E94E3
:1054400093BA60E08FE095E00E9493BA61E08CEF40
:1054500094E00E9493BA5DC68091B71B9091B81BEF
:10546000DC012C91222321F060E00E9410EF51C654
:105470000E94DF914EC6F8019081292F2B7F2134A5
:1054800019F08150C1F716C021812133D1F7913431
:1054900021F0953421F441E002C0DD24D394980139
:1054A0002E5F3F4F89012F5F3F4FD8019C91903273
:1054B000C9F3E7CF442369F0E5E6F7E384917F0180
:1054C000BFEFEB1AFB0A882321F00E940E3CF70184
:1054D000F5CFDD2069F0E6E5F6E084917F012FEF5E
:1054E000E21AF20A882321F00E940E3CF701F5CF60
:1054F000D8018D918D01882309F409CB0E940E3CBF
:10550000F7CF0F94180E05C681E08093B9038093FE
:10551000B803FFC51092B9031092B803FAC583E52A
:105520000E94E83B882319F00E943C3B02C060E0E7
:1055300070E08B01112702301105D4F0EBE6F7E3A0
:1055400084918F010F5F1F4F811103C0EAE5F6E0E0
:1055500004C00E940E3CF801F3CF84918F010F5FCD
:105560001F4F882309F4D5C50E940E3CF801F5CFE2
:1055700088E40E94E83B8823A9F00E943C3B6A3AF9
:1055800071053CF06431B1E07B072CF063E171E020
:1055900002C06AEA70E0F801EE0FFF1FEF5BF54F03
:1055A0007183608386E40E94E83B8823A9F00E940F
:1055B0003C3BF801EE0FFF1FEB5BF54F71836083FF
:1055C0006F3F710519F014F06FEF70E077FF02C0C4
:1055D00060E070E07183608382E40E94E83B88238E
:1055E00009F497C50E943C3B6530710534F06A367A
:1055F00071052CF069E670E002C065E070E0000F14
:10560000111FF801E35CF54F7183608382C570E67A
:10561000E72E72E0F72E01E311E1F70181917F019E
:105620000E949F3B882351F00E946C3B0F94682995
:10563000D8016D937D938D939C9313970C5F1F4FAF
:10564000B1E101341B0749F70E94DD9962C50C5F87
:105650001F4FBAE001361B0709F45BC5F7018191C2
:105660007F010E949F3B882391F30E946C3BD801ED
:105670006D937D938D939C931397E9CF83E50E945F
:10568000E83B8823A1F00E946C3B60934511709326
:105690004611809347119093481160934111709384
:1056A0004211809343119093441110E001C011E026
:1056B00080E50E94E83B882359F00E946C3B609390
:1056C000451170934611809347119093481110E053
:1056D00082E50E94E83B882359F00E946C3B60936E
:1056E000661170936711809368119093691110E0AF
:1056F00084E50E94E83B882359F00E946C3B60934C
:10570000411170934211809343119093441101C54C
:10571000112309F4FEC44091451150914611609146
:1057200047117091481182E896E00E949C5A40917E
:1057300066115091671160916811709169118FE73E
:1057400096E00E949C5A4091411150914211609103
:105750004311709144118CE796E00E949C5A8AE0B4
:105760000E940E3CD6C481E50E949F3B882351F0E5
:105770000E942C3B6093F8107093F9108093FA10FC
:105780009093FB1083E50E949F3B882351F00E9479
:105790006C3B60934D0A70934E0A80934F0A90932E
:1057A000500A84E50E949F3B882351F00E946C3B85
:1057B0006093490A70934A0A80934B0A90934C0A6B
:1057C00088E50E949F3B882351F00E946C3B6093C8
:1057D000491170934A1180934B1190934C1189E5B4
:1057E0000E949F3B882351F00E946C3B60934D11B7
:1057F00070934E1180934F11909350118AE50E943F
:105800009F3B8823F1F00E946C3B60935111709391
:10581000521180935311909354112DEC3CEC4CECAD
:105820005DE30F948521181664F0E2E9F6E08491B7
:105830008F010F5F1F4F882321F00E940E3CF8015B
:10584000F6CF85E40E949F3B882309F462C40E943E
:105850006C3B609355117093561180935711909340
:10586000581157C440E6C42E42E0D42E5BE9E52E21
:1058700058E0F52E10E0F60181916F010E949F3BE8
:10588000882359F00E946C3BD7016D937D938D93D3
:105890009C931397812F0E94D2391F5FB4E0EB0EC7
:1058A000F11C133041F70C9494210E9416B231C4BC
:1058B0000E94B5B92EC483E50E94E83B882309F411
:1058C00028C40E943C3B70931D0260931C0221C4BB
:1058D0008DED90E00E940A3D81111BC483E50E947A
:1058E000E83B811103C0E5E6F7E32FC00091790A98
:1058F00010E00E943C3B000F111FF801E65EFD4FD7
:10590000718360838091790A90E08C01000F111FF0
:10591000000F111F0A5E1D4F880F991FFC01E65EE4
:10592000FD4F60817181072E000C880B990B0F943D
:105930008B212AE037ED43E25CE30F94EA21F80182
:105940006083718382839383E4C384918F010F5FAB
:105950001F4F882321F00E940E3CF801F6CF85E40A
:105960000E940E3C8091790A805D0E940E3CE0917D
:10597000790AF0E0EE0FFF1FE65EFD4F6081718156
:1059800084EC96E00E94B95A85E20E940E3C8AE0BF
:105990000E940E3CBEC380E50E949F3B882309F411
:1059A000B8C30E943C3B6B017C0183E50E94E83B4D
:1059B000882321F00E943C3B8B0102C00FEF1FEFB8
:1059C000C8010196039708F0A4C3D7FCA2C38C2D8D
:1059D000ECECF6E09491891303C0EBE6F7E309C021
:1059E000319626E0E93FF207A9F7C1C50E940E3CB7
:1059F000F80184918F010F5F1F4F8111F7CFE9EFFD
:105A0000F6E084918F010F5F1F4F882309F481C353
:105A10000E940E3CF801F5CF80E50E949F3B882351
:105A200009F477C30E943C3B6B017C018B01672B1F
:105A300019F0EBE6F7E37FC083E50E949F3B8111FD
:105A400003C0E5E6F7E307C00E943C3B86E598E12A
:105A50000E9447595EC384917F014FEFE41AF40A14
:105A6000882321F00E940E3CF701F5CF60E070E042
:105A700081E297E00E94B95A8091581828E532E0F7
:105A80006901C81AD10887FDD394CC0CDD1CCC0C5D
:105A9000DD1C0D2C000CEE08FF088091571828E83B
:105AA00030E04901881A910887FD9394880C991C6D
:105AB000880C991C092C000CAA08BB088091561868
:105AC0008F3FB9F090E0FC01EE0FFF1F8E0F9F1F7C
:105AD000FC01E751F84E0181128173E0000F111FA4
